{
  "contractName": "MapCore",
  "abi": [
    {
      "inputs": [],
      "stateMutability": "nonpayable",
      "type": "constructor"
    },
    {
      "anonymous": false,
      "inputs": [
        {
          "indexed": false,
          "internalType": "address",
          "name": "owner",
          "type": "address"
        },
        {
          "indexed": false,
          "internalType": "address",
          "name": "approved",
          "type": "address"
        },
        {
          "indexed": false,
          "internalType": "uint256",
          "name": "tokenId",
          "type": "uint256"
        }
      ],
      "name": "Approval",
      "type": "event"
    },
    {
      "anonymous": false,
      "inputs": [
        {
          "indexed": false,
          "internalType": "uint256",
          "name": "mapId",
          "type": "uint256"
        }
      ],
      "name": "MapCreated",
      "type": "event"
    },
    {
      "anonymous": false,
      "inputs": [
        {
          "indexed": false,
          "internalType": "string",
          "name": "TxType",
          "type": "string"
        },
        {
          "indexed": false,
          "internalType": "address",
          "name": "owner",
          "type": "address"
        },
        {
          "indexed": false,
          "internalType": "uint256",
          "name": "tokenId",
          "type": "uint256"
        }
      ],
      "name": "MarketTransaction",
      "type": "event"
    },
    {
      "anonymous": false,
      "inputs": [
        {
          "indexed": false,
          "internalType": "address",
          "name": "from",
          "type": "address"
        },
        {
          "indexed": false,
          "internalType": "address",
          "name": "to",
          "type": "address"
        },
        {
          "indexed": false,
          "internalType": "uint256",
          "name": "tokenId",
          "type": "uint256"
        }
      ],
      "name": "Transfer",
      "type": "event"
    },
    {
      "inputs": [
        {
          "internalType": "address",
          "name": "_to",
          "type": "address"
        },
        {
          "internalType": "uint256",
          "name": "_tokenId",
          "type": "uint256"
        }
      ],
      "name": "approve",
      "outputs": [],
      "stateMutability": "nonpayable",
      "type": "function"
    },
    {
      "inputs": [
        {
          "internalType": "address",
          "name": "_owner",
          "type": "address"
        }
      ],
      "name": "balanceOf",
      "outputs": [
        {
          "internalType": "uint256",
          "name": "count",
          "type": "uint256"
        }
      ],
      "stateMutability": "view",
      "type": "function"
    },
    {
      "inputs": [
        {
          "internalType": "uint256",
          "name": "_tokenId",
          "type": "uint256"
        }
      ],
      "name": "buyMap",
      "outputs": [],
      "stateMutability": "payable",
      "type": "function"
    },
    {
      "inputs": [],
      "name": "getAllTokenOnSale",
      "outputs": [
        {
          "internalType": "uint256[]",
          "name": "listOfToken",
          "type": "uint256[]"
        }
      ],
      "stateMutability": "view",
      "type": "function"
    },
    {
      "inputs": [
        {
          "internalType": "uint256",
          "name": "_tokenId",
          "type": "uint256"
        }
      ],
      "name": "getOffer",
      "outputs": [
        {
          "internalType": "address",
          "name": "seller",
          "type": "address"
        },
        {
          "internalType": "uint256",
          "name": "price",
          "type": "uint256"
        },
        {
          "internalType": "uint256",
          "name": "tokenId",
          "type": "uint256"
        }
      ],
      "stateMutability": "view",
      "type": "function"
    },
    {
      "inputs": [
        {
          "internalType": "uint256",
          "name": "",
          "type": "uint256"
        }
      ],
      "name": "mapIndexToApproved",
      "outputs": [
        {
          "internalType": "address",
          "name": "",
          "type": "address"
        }
      ],
      "stateMutability": "view",
      "type": "function"
    },
    {
      "inputs": [
        {
          "internalType": "uint256",
          "name": "",
          "type": "uint256"
        }
      ],
      "name": "mapIndexToOwner",
      "outputs": [
        {
          "internalType": "address",
          "name": "",
          "type": "address"
        }
      ],
      "stateMutability": "view",
      "type": "function"
    },
    {
      "inputs": [],
      "name": "name",
      "outputs": [
        {
          "internalType": "string",
          "name": "",
          "type": "string"
        }
      ],
      "stateMutability": "view",
      "type": "function"
    },
    {
      "inputs": [],
      "name": "owner",
      "outputs": [
        {
          "internalType": "address",
          "name": "",
          "type": "address"
        }
      ],
      "stateMutability": "view",
      "type": "function"
    },
    {
      "inputs": [
        {
          "internalType": "uint256",
          "name": "_tokenId",
          "type": "uint256"
        }
      ],
      "name": "ownerOf",
      "outputs": [
        {
          "internalType": "address",
          "name": "owner",
          "type": "address"
        }
      ],
      "stateMutability": "view",
      "type": "function"
    },
    {
      "inputs": [
        {
          "internalType": "uint256",
          "name": "_tokenId",
          "type": "uint256"
        }
      ],
      "name": "removeOffer",
      "outputs": [],
      "stateMutability": "nonpayable",
      "type": "function"
    },
    {
      "inputs": [
        {
          "internalType": "uint256",
          "name": "_price",
          "type": "uint256"
        },
        {
          "internalType": "uint256",
          "name": "_tokenId",
          "type": "uint256"
        }
      ],
      "name": "setOffer",
      "outputs": [],
      "stateMutability": "nonpayable",
      "type": "function"
    },
    {
      "inputs": [
        {
          "internalType": "bytes4",
          "name": "_interfaceID",
          "type": "bytes4"
        }
      ],
      "name": "supportsInterface",
      "outputs": [
        {
          "internalType": "bool",
          "name": "",
          "type": "bool"
        }
      ],
      "stateMutability": "pure",
      "type": "function"
    },
    {
      "inputs": [],
      "name": "symbol",
      "outputs": [
        {
          "internalType": "string",
          "name": "",
          "type": "string"
        }
      ],
      "stateMutability": "view",
      "type": "function"
    },
    {
      "inputs": [
        {
          "internalType": "address",
          "name": "_owner",
          "type": "address"
        }
      ],
      "name": "tokensOfOwner",
      "outputs": [
        {
          "internalType": "uint256[]",
          "name": "ownerTokens",
          "type": "uint256[]"
        }
      ],
      "stateMutability": "view",
      "type": "function"
    },
    {
      "inputs": [],
      "name": "totalSupply",
      "outputs": [
        {
          "internalType": "uint256",
          "name": "",
          "type": "uint256"
        }
      ],
      "stateMutability": "view",
      "type": "function"
    },
    {
      "inputs": [
        {
          "internalType": "address",
          "name": "_to",
          "type": "address"
        },
        {
          "internalType": "uint256",
          "name": "_tokenId",
          "type": "uint256"
        }
      ],
      "name": "transfer",
      "outputs": [],
      "stateMutability": "nonpayable",
      "type": "function"
    },
    {
      "inputs": [
        {
          "internalType": "address",
          "name": "_from",
          "type": "address"
        },
        {
          "internalType": "address",
          "name": "_to",
          "type": "address"
        },
        {
          "internalType": "uint256",
          "name": "_tokenId",
          "type": "uint256"
        }
      ],
      "name": "transferFrom",
      "outputs": [],
      "stateMutability": "nonpayable",
      "type": "function"
    },
    {
      "inputs": [
        {
          "internalType": "address",
          "name": "newOwner",
          "type": "address"
        }
      ],
      "name": "transferOwnership",
      "outputs": [],
      "stateMutability": "nonpayable",
      "type": "function"
    },
    {
      "inputs": [
        {
          "internalType": "string",
          "name": "_map",
          "type": "string"
        }
      ],
      "name": "createMap",
      "outputs": [],
      "stateMutability": "nonpayable",
      "type": "function"
    },
    {
      "inputs": [
        {
          "internalType": "uint256",
          "name": "_id",
          "type": "uint256"
        }
      ],
      "name": "getMap",
      "outputs": [
        {
          "internalType": "string",
          "name": "mapId",
          "type": "string"
        }
      ],
      "stateMutability": "view",
      "type": "function"
    }
  ],
  "bytecode": "0x608060405260006008553480156200001657600080fd5b50336000806101000a81548173ffffffffffffffffffffffffffffffffffffffff021916908373ffffffffffffffffffffffffffffffffffffffff160217905550620000796040518060200160405280600081525060006200008060201b60201c565b506200060d565b60008060405180604001604052804267ffffffffffffffff168152602001858152509050600181908060018154018082558091505060019003906000526020600020906002020160009091909190915060008201518160000160006101000a81548167ffffffffffffffff021916908367ffffffffffffffff16021790555060208201518160010190805190602001906200011d92919062000357565b5050506000600180549050905060006001826200013b919062000440565b90508063ffffffff1681146200015057600080fd5b7f78f328f36b68e2e3b4ffe5dbfe21573cd7f56d4c27664e76413db2496d421e9d816040516200018191906200048c565b60405180910390a16200019d60008683620001a960201b60201c565b80935050505092915050565b600360008373ffffffffffffffffffffffffffffffffffffffff1673ffffffffffffffffffffffffffffffffffffffff1681526020019081526020016000206000815480929190620001fb90620004a9565b9190505550816002600083815260200190815260200160002060006101000a81548173ffffffffffffffffffffffffffffffffffffffff021916908373ffffffffffffffffffffffffffffffffffffffff160217905550600073ffffffffffffffffffffffffffffffffffffffff168373ffffffffffffffffffffffffffffffffffffffff16146200031557600360008473ffffffffffffffffffffffffffffffffffffffff1673ffffffffffffffffffffffffffffffffffffffff1681526020019081526020016000206000815480929190620002d990620004f7565b91905055506004600082815260200190815260200160002060006101000a81549073ffffffffffffffffffffffffffffffffffffffff02191690555b7fddf252ad1be2c89b69c2b068fc378daa952ba7f163c4a11628f55a4df523b3ef8383836040516200034a939291906200056b565b60405180910390a1505050565b8280546200036590620005d7565b90600052602060002090601f016020900481019282620003895760008555620003d5565b82601f10620003a457805160ff1916838001178555620003d5565b82800160010185558215620003d5579182015b82811115620003d4578251825591602001919060010190620003b7565b5b509050620003e49190620003e8565b5090565b5b8082111562000403576000816000905550600101620003e9565b5090565b6000819050919050565b7f4e487b7100000000000000000000000000000000000000000000000000000000600052601160045260246000fd5b60006200044d8262000407565b91506200045a8362000407565b92508282101562000470576200046f62000411565b5b828203905092915050565b620004868162000407565b82525050565b6000602082019050620004a360008301846200047b565b92915050565b6000620004b68262000407565b91507fffffffffffffffffffffffffffffffffffffffffffffffffffffffffffffffff821415620004ec57620004eb62000411565b5b600182019050919050565b6000620005048262000407565b915060008214156200051b576200051a62000411565b5b600182039050919050565b600073ffffffffffffffffffffffffffffffffffffffff82169050919050565b6000620005538262000526565b9050919050565b620005658162000546565b82525050565b60006060820190506200058260008301866200055a565b6200059160208301856200055a565b620005a060408301846200047b565b949350505050565b7f4e487b7100000000000000000000000000000000000000000000000000000000600052602260045260246000fd5b60006002820490506001821680620005f057607f821691505b60208210811415620006075762000606620005a8565b5b50919050565b612807806200061d6000396000f3fe60806040526004361061012a5760003560e01c80638462151c116100ab57806395d89b411161006f57806395d89b411461042c578063a9059cbb14610457578063cbb39e9e14610480578063d63addf8146104a9578063e8c6e455146104c5578063f2fde38b146105025761012a565b80638462151c146103355780638da5cb5b14610372578063941b055b1461039d578063945c8a1d146103c657806395a0f9c7146104035761012a565b806323b872dd116100f257806323b872dd146102285780634579268a1461025157806349b3709f146102905780636352211e146102bb57806370a08231146102f85761012a565b806301ffc9a71461012f578063025799f01461016c57806306fdde03146101a9578063095ea7b3146101d457806318160ddd146101fd575b600080fd5b34801561013b57600080fd5b5061015660048036038101906101519190611bda565b61052b565b6040516101639190611c22565b60405180910390f35b34801561017857600080fd5b50610193600480360381019061018e9190611c73565b61072f565b6040516101a09190611d39565b60405180910390f35b3480156101b557600080fd5b506101be610851565b6040516101cb9190611d39565b60405180910390f35b3480156101e057600080fd5b506101fb60048036038101906101f69190611db9565b61088a565b005b34801561020957600080fd5b506102126108e6565b60405161021f9190611e08565b60405180910390f35b34801561023457600080fd5b5061024f600480360381019061024a9190611e23565b6108fe565b005b34801561025d57600080fd5b5061027860048036038101906102739190611c73565b61096e565b60405161028793929190611e85565b60405180910390f35b34801561029c57600080fd5b506102a56109c6565b6040516102b29190611f7a565b60405180910390f35b3480156102c757600080fd5b506102e260048036038101906102dd9190611c73565b610b15565b6040516102ef9190611f9c565b60405180910390f35b34801561030457600080fd5b5061031f600480360381019061031a9190611fb7565b610b8c565b60405161032c9190611e08565b60405180910390f35b34801561034157600080fd5b5061035c60048036038101906103579190611fb7565b610bd5565b6040516103699190611f7a565b60405180910390f35b34801561037e57600080fd5b50610387610d5e565b6040516103949190611f9c565b60405180910390f35b3480156103a957600080fd5b506103c460048036038101906103bf9190611fe4565b610d82565b005b3480156103d257600080fd5b506103ed60048036038101906103e89190611c73565b610fd1565b6040516103fa9190611f9c565b60405180910390f35b34801561040f57600080fd5b5061042a60048036038101906104259190611c73565b611004565b005b34801561043857600080fd5b5061044161124d565b60405161044e9190611d39565b60405180910390f35b34801561046357600080fd5b5061047e60048036038101906104799190611db9565b611286565b005b34801561048c57600080fd5b506104a760048036038101906104a29190612159565b6112e2565b005b6104c360048036038101906104be9190611c73565b61135e565b005b3480156104d157600080fd5b506104ec60048036038101906104e79190611c73565b61158d565b6040516104f99190611f9c565b60405180910390f35b34801561050e57600080fd5b5061052960048036038101906105249190611fb7565b6115c0565b005b60007f01ffc9a7a5cef8baa21ed3c5c0d7e23accb804b619e9333b597f47a0d84076e27bffffffffffffffffffffffffffffffffffffffffffffffffffffffff1916827bffffffffffffffffffffffffffffffffffffffffffffffffffffffff1916148061072857507f0560ff44c470b66135b184f41c47840de0a42f8d70ee772ca647210e9eb3c8fd7f8462151cfcc0f257319f78db464014651918f3905b3d4bdab48d3f4618c542c17f23b872dd7302113369cda2901243429419bec145408fa8b352b3dd92b66c680b7fa9059cbb2ab09eb219583f4a59a5d0623ade346d962bcd4e46b11da047c9049b7f095ea7b334ae44009aa867bfb386f5c3b4b443ac6f0ee573fa91c4608fbadfba7f6352211e6566aa027e75ac9dbf2423197fbd9b82b9d981a3ab367d355866aa1c7f70a08231b98ef4ca268c9cc3f6b4590e4bfec28280db06bb5d45e689f2a360be7f18160ddd7f15c72528c2f94fd8dfe3c8d5aa26e2c50c7d81f4bc7bee8d4b79327f95d89b41e2f5f391a79ec54e9d87c79d6e777c63e32c28da95b4e9e4a79250ec7f06fdde0383f15d582d1a74511486c9ddf862a882fb7904b3d9fe9b8b8e58a7961818181818181818187bffffffffffffffffffffffffffffffffffffffffffffffffffffffff1916827bffffffffffffffffffffffffffffffffffffffffffffffffffffffff1916145b9050919050565b6060600060018381548110610747576107466121a2565b5b9060005260206000209060020201905060008160000160009054906101000a900467ffffffffffffffff1667ffffffffffffffff16116107bc576040517f08c379a00000000000000000000000000000000000000000000000000000000081526004016107b39061221d565b60405180910390fd5b8060010180546107cb9061226c565b80601f01602080910402602001604051908101604052809291908181526020018280546107f79061226c565b80156108445780601f1061081957610100808354040283529160200191610844565b820191906000526020600020905b81548152906001019060200180831161082757829003601f168201915b5050505050915050919050565b6040518060400160405280600b81526020017f4b65736176616e4d61707300000000000000000000000000000000000000000081525081565b6108943382611690565b61089d57600080fd5b6108a781836116fc565b7f8c5be1e5ebec7d5bd14f71427d1e84f3dd0314c0f7b2291e5b200ac8c7c3b9253383836040516108da9392919061229e565b60405180910390a15050565b6000600180805490506108f99190612304565b905090565b600073ffffffffffffffffffffffffffffffffffffffff168273ffffffffffffffffffffffffffffffffffffffff16141561093857600080fd5b6109423382611752565b61094b57600080fd5b6109558382611690565b61095e57600080fd5b6109698383836117be565b505050565b6000806000806006600086815260200190815260200160002090508060000160009054906101000a900473ffffffffffffffffffffffffffffffffffffffff1681600101548260020154935093509350509193909250565b6060600060058054905090506000811415610a2d57600067ffffffffffffffff8111156109f6576109f561202e565b5b604051908082528060200260200182016040528015610a245781602001602082028036833780820191505090505b50915050610b12565b60008167ffffffffffffffff811115610a4957610a4861202e565b5b604051908082528060200260200182016040528015610a775781602001602082028036833780820191505090505b50905060005b82811015610b0b57600060058281548110610a9b57610a9a6121a2565b5b90600052602060002090600302016001015414610af85760058181548110610ac657610ac56121a2565b5b906000526020600020906003020160020154828281518110610aeb57610aea6121a2565b5b6020026020010181815250505b8080610b0390612338565b915050610a7d565b8193505050505b90565b60006002600083815260200190815260200160002060009054906101000a900473ffffffffffffffffffffffffffffffffffffffff169050600073ffffffffffffffffffffffffffffffffffffffff168173ffffffffffffffffffffffffffffffffffffffff161415610b8757600080fd5b919050565b6000600360008373ffffffffffffffffffffffffffffffffffffffff1673ffffffffffffffffffffffffffffffffffffffff168152602001908152602001600020549050919050565b60606000610be283610b8c565b90506000811415610c3f57600067ffffffffffffffff811115610c0857610c0761202e565b5b604051908082528060200260200182016040528015610c365781602001602082028036833780820191505090505b50915050610d59565b60008167ffffffffffffffff811115610c5b57610c5a61202e565b5b604051908082528060200260200182016040528015610c895781602001602082028036833780820191505090505b5090506000610c966108e6565b9050600080600190505b828111610d50578673ffffffffffffffffffffffffffffffffffffffff166002600083815260200190815260200160002060009054906101000a900473ffffffffffffffffffffffffffffffffffffffff1673ffffffffffffffffffffffffffffffffffffffff161415610d3d5780848381518110610d2257610d216121a2565b5b6020026020010181815250508180610d3990612338565b9250505b8080610d4890612338565b915050610ca0565b83955050505050505b919050565b60008054906101000a900473ffffffffffffffffffffffffffffffffffffffff1681565b661ff973cafa80008211610dcb576040517f08c379a0000000000000000000000000000000000000000000000000000000008152600401610dc2906123f3565b60405180910390fd5b6000600660008381526020019081526020016000206001015414610e24576040517f08c379a0000000000000000000000000000000000000000000000000000000008152600401610e1b90612485565b60405180910390fd5b610e2e308261088a565b600060405180606001604052803373ffffffffffffffffffffffffffffffffffffffff168152602001848152602001838152509050806006600084815260200190815260200160002060008201518160000160006101000a81548173ffffffffffffffffffffffffffffffffffffffff021916908373ffffffffffffffffffffffffffffffffffffffff1602179055506020820151816001015560408201518160020155905050600581908060018154018082558091505060019003906000526020600020906003020160009091909190915060008201518160000160006101000a81548173ffffffffffffffffffffffffffffffffffffffff021916908373ffffffffffffffffffffffffffffffffffffffff16021790555060208201518160010155604082015181600201555050600060058054905090506000600182610f779190612304565b90508060076000868152602001908152602001600020819055507fd99e4fad9ad6313b1feb588fa8e605e3a9873172f2024330c35dd2b4041a43863385604051610fc29291906124f1565b60405180910390a15050505050565b60026020528060005260406000206000915054906101000a900473ffffffffffffffffffffffffffffffffffffffff1681565b61100e3382611690565b61104d576040517f08c379a000000000000000000000000000000000000000000000000000000000815260040161104490612579565b60405180910390fd5b6000600660008381526020019081526020016000206040518060600160405290816000820160009054906101000a900473ffffffffffffffffffffffffffffffffffffffff1673ffffffffffffffffffffffffffffffffffffffff1673ffffffffffffffffffffffffffffffffffffffff1681526020016001820154815260200160028201548152505090503373ffffffffffffffffffffffffffffffffffffffff16816000015173ffffffffffffffffffffffffffffffffffffffff161461114b576040517f08c379a00000000000000000000000000000000000000000000000000000000081526004016111429061260b565b60405180910390fd5b6005600760008481526020019081526020016000205481548110611172576111716121a2565b5b9060005260206000209060030201600080820160006101000a81549073ffffffffffffffffffffffffffffffffffffffff021916905560018201600090556002820160009055505060066000838152602001908152602001600020600080820160006101000a81549073ffffffffffffffffffffffffffffffffffffffff021916905560018201600090556002820160009055505061121082611965565b7fd99e4fad9ad6313b1feb588fa8e605e3a9873172f2024330c35dd2b4041a43863383604051611241929190612677565b60405180910390a15050565b6040518060400160405280600281526020017f434b00000000000000000000000000000000000000000000000000000000000081525081565b600073ffffffffffffffffffffffffffffffffffffffff168273ffffffffffffffffffffffffffffffffffffffff1614156112c057600080fd5b6112ca3382611690565b6112d357600080fd5b6112de3383836117be565b5050565b60008054906101000a900473ffffffffffffffffffffffffffffffffffffffff1673ffffffffffffffffffffffffffffffffffffffff163373ffffffffffffffffffffffffffffffffffffffff161461133a57600080fd5b600061134682336119b1565b905061135a6702c68af0bb14000082610d82565b5050565b6000600660008381526020019081526020016000206040518060600160405290816000820160009054906101000a900473ffffffffffffffffffffffffffffffffffffffff1673ffffffffffffffffffffffffffffffffffffffff1673ffffffffffffffffffffffffffffffffffffffff16815260200160018201548152602001600282015481525050905080602001513414611430576040517f08c379a0000000000000000000000000000000000000000000000000000000008152600401611427906126ff565b60405180910390fd5b6005600760008481526020019081526020016000205481548110611457576114566121a2565b5b9060005260206000209060030201600080820160006101000a81549073ffffffffffffffffffffffffffffffffffffffff021916905560018201600090556002820160009055505060066000838152602001908152602001600020600080820160006101000a81549073ffffffffffffffffffffffffffffffffffffffff02191690556001820160009055600282016000905550506114f682336116fc565b611505816000015133846108fe565b806000015173ffffffffffffffffffffffffffffffffffffffff166108fc349081150290604051600060405180830381858888f1935050505015801561154f573d6000803e3d6000fd5b507fd99e4fad9ad6313b1feb588fa8e605e3a9873172f2024330c35dd2b4041a4386338360405161158192919061276b565b60405180910390a15050565b60046020528060005260406000206000915054906101000a900473ffffffffffffffffffffffffffffffffffffffff1681565b60008054906101000a900473ffffffffffffffffffffffffffffffffffffffff1673ffffffffffffffffffffffffffffffffffffffff163373ffffffffffffffffffffffffffffffffffffffff161461161857600080fd5b600073ffffffffffffffffffffffffffffffffffffffff168173ffffffffffffffffffffffffffffffffffffffff161461168d57806000806101000a81548173ffffffffffffffffffffffffffffffffffffffff021916908373ffffffffffffffffffffffffffffffffffffffff1602179055505b50565b60008273ffffffffffffffffffffffffffffffffffffffff166002600084815260200190815260200160002060009054906101000a900473ffffffffffffffffffffffffffffffffffffffff1673ffffffffffffffffffffffffffffffffffffffff1614905092915050565b806004600084815260200190815260200160002060006101000a81548173ffffffffffffffffffffffffffffffffffffffff021916908373ffffffffffffffffffffffffffffffffffffffff1602179055505050565b60008273ffffffffffffffffffffffffffffffffffffffff166004600084815260200190815260200160002060009054906101000a900473ffffffffffffffffffffffffffffffffffffffff1673ffffffffffffffffffffffffffffffffffffffff1614905092915050565b600360008373ffffffffffffffffffffffffffffffffffffffff1673ffffffffffffffffffffffffffffffffffffffff168152602001908152602001600020600081548092919061180e90612338565b9190505550816002600083815260200190815260200160002060006101000a81548173ffffffffffffffffffffffffffffffffffffffff021916908373ffffffffffffffffffffffffffffffffffffffff160217905550600073ffffffffffffffffffffffffffffffffffffffff168373ffffffffffffffffffffffffffffffffffffffff161461192557600360008473ffffffffffffffffffffffffffffffffffffffff1673ffffffffffffffffffffffffffffffffffffffff16815260200190815260200160002060008154809291906118e9906127a7565b91905055506004600082815260200190815260200160002060006101000a81549073ffffffffffffffffffffffffffffffffffffffff02191690555b7fddf252ad1be2c89b69c2b068fc378daa952ba7f163c4a11628f55a4df523b3ef8383836040516119589392919061229e565b60405180910390a1505050565b61196f3382611690565b61197857600080fd5b6004600082815260200190815260200160002060006101000a81549073ffffffffffffffffffffffffffffffffffffffff021916905550565b60008060405180604001604052804267ffffffffffffffff168152602001858152509050600181908060018154018082558091505060019003906000526020600020906002020160009091909190915060008201518160000160006101000a81548167ffffffffffffffff021916908367ffffffffffffffff1602179055506020820151816001019080519060200190611a4c929190611acb565b505050600060018054905090506000600182611a689190612304565b90508063ffffffff168114611a7c57600080fd5b7f78f328f36b68e2e3b4ffe5dbfe21573cd7f56d4c27664e76413db2496d421e9d81604051611aab9190611e08565b60405180910390a1611abf600086836117be565b80935050505092915050565b828054611ad79061226c565b90600052602060002090601f016020900481019282611af95760008555611b40565b82601f10611b1257805160ff1916838001178555611b40565b82800160010185558215611b40579182015b82811115611b3f578251825591602001919060010190611b24565b5b509050611b4d9190611b51565b5090565b5b80821115611b6a576000816000905550600101611b52565b5090565b6000604051905090565b600080fd5b600080fd5b60007fffffffff0000000000000000000000000000000000000000000000000000000082169050919050565b611bb781611b82565b8114611bc257600080fd5b50565b600081359050611bd481611bae565b92915050565b600060208284031215611bf057611bef611b78565b5b6000611bfe84828501611bc5565b91505092915050565b60008115159050919050565b611c1c81611c07565b82525050565b6000602082019050611c376000830184611c13565b92915050565b6000819050919050565b611c5081611c3d565b8114611c5b57600080fd5b50565b600081359050611c6d81611c47565b92915050565b600060208284031215611c8957611c88611b78565b5b6000611c9784828501611c5e565b91505092915050565b600081519050919050565b600082825260208201905092915050565b60005b83811015611cda578082015181840152602081019050611cbf565b83811115611ce9576000848401525b50505050565b6000601f19601f8301169050919050565b6000611d0b82611ca0565b611d158185611cab565b9350611d25818560208601611cbc565b611d2e81611cef565b840191505092915050565b60006020820190508181036000830152611d538184611d00565b905092915050565b600073ffffffffffffffffffffffffffffffffffffffff82169050919050565b6000611d8682611d5b565b9050919050565b611d9681611d7b565b8114611da157600080fd5b50565b600081359050611db381611d8d565b92915050565b60008060408385031215611dd057611dcf611b78565b5b6000611dde85828601611da4565b9250506020611def85828601611c5e565b9150509250929050565b611e0281611c3d565b82525050565b6000602082019050611e1d6000830184611df9565b92915050565b600080600060608486031215611e3c57611e3b611b78565b5b6000611e4a86828701611da4565b9350506020611e5b86828701611da4565b9250506040611e6c86828701611c5e565b9150509250925092565b611e7f81611d7b565b82525050565b6000606082019050611e9a6000830186611e76565b611ea76020830185611df9565b611eb46040830184611df9565b949350505050565b600081519050919050565b600082825260208201905092915050565b6000819050602082019050919050565b611ef181611c3d565b82525050565b6000611f038383611ee8565b60208301905092915050565b6000602082019050919050565b6000611f2782611ebc565b611f318185611ec7565b9350611f3c83611ed8565b8060005b83811015611f6d578151611f548882611ef7565b9750611f5f83611f0f565b925050600181019050611f40565b5085935050505092915050565b60006020820190508181036000830152611f948184611f1c565b905092915050565b6000602082019050611fb16000830184611e76565b92915050565b600060208284031215611fcd57611fcc611b78565b5b6000611fdb84828501611da4565b91505092915050565b60008060408385031215611ffb57611ffa611b78565b5b600061200985828601611c5e565b925050602061201a85828601611c5e565b9150509250929050565b600080fd5b600080fd5b7f4e487b7100000000000000000000000000000000000000000000000000000000600052604160045260246000fd5b61206682611cef565b810181811067ffffffffffffffff821117156120855761208461202e565b5b80604052505050565b6000612098611b6e565b90506120a4828261205d565b919050565b600067ffffffffffffffff8211156120c4576120c361202e565b5b6120cd82611cef565b9050602081019050919050565b82818337600083830152505050565b60006120fc6120f7846120a9565b61208e565b90508281526020810184848401111561211857612117612029565b5b6121238482856120da565b509392505050565b600082601f8301126121405761213f612024565b5b81356121508482602086016120e9565b91505092915050565b60006020828403121561216f5761216e611b78565b5b600082013567ffffffffffffffff81111561218d5761218c611b7d565b5b6121998482850161212b565b91505092915050565b7f4e487b7100000000000000000000000000000000000000000000000000000000600052603260045260246000fd5b7f746865206d617020646f65736e27742065786973740000000000000000000000600082015250565b6000612207601583611cab565b9150612212826121d1565b602082019050919050565b60006020820190508181036000830152612236816121fa565b9050919050565b7f4e487b7100000000000000000000000000000000000000000000000000000000600052602260045260246000fd5b6000600282049050600182168061228457607f821691505b602082108114156122985761229761223d565b5b50919050565b60006060820190506122b36000830186611e76565b6122c06020830185611e76565b6122cd6040830184611df9565b949350505050565b7f4e487b7100000000000000000000000000000000000000000000000000000000600052601160045260246000fd5b600061230f82611c3d565b915061231a83611c3d565b92508282101561232d5761232c6122d5565b5b828203905092915050565b600061234382611c3d565b91507fffffffffffffffffffffffffffffffffffffffffffffffffffffffffffffffff821415612376576123756122d5565b5b600182019050919050565b7f4361742070726963652073686f756c642062652067726561746572207468616e60008201527f20302e3031000000000000000000000000000000000000000000000000000000602082015250565b60006123dd602583611cab565b91506123e882612381565b604082019050919050565b6000602082019050818103600083015261240c816123d0565b9050919050565b7f596f752063616e27742073656c6c207477696365207468652073616d65206f6660008201527f6665727320000000000000000000000000000000000000000000000000000000602082015250565b600061246f602583611cab565b915061247a82612413565b604082019050919050565b6000602082019050818103600083015261249e81612462565b9050919050565b7f437265617465206f666665720000000000000000000000000000000000000000600082015250565b60006124db600c83611cab565b91506124e6826124a5565b602082019050919050565b6000606082019050818103600083015261250a816124ce565b90506125196020830185611e76565b6125266040830184611df9565b9392505050565b7f546865207573657220646f65736e2774206f776e2074686520746f6b656e0000600082015250565b6000612563601e83611cab565b915061256e8261252d565b602082019050919050565b6000602082019050818103600083015261259281612556565b9050919050565b7f596f752073686f756c64206f776e20746865206d617020746f2062652061626c60008201527f6520746f2072656d6f76652074686973206f6666657200000000000000000000602082015250565b60006125f5603683611cab565b915061260082612599565b604082019050919050565b60006020820190508181036000830152612624816125e8565b9050919050565b7f52656d6f7665206f666665720000000000000000000000000000000000000000600082015250565b6000612661600c83611cab565b915061266c8261262b565b602082019050919050565b6000606082019050818103600083015261269081612654565b905061269f6020830185611e76565b6126ac6040830184611df9565b9392505050565b7f546865207072696365206973206e6f7420636f72726563740000000000000000600082015250565b60006126e9601883611cab565b91506126f4826126b3565b602082019050919050565b60006020820190508181036000830152612718816126dc565b9050919050565b7f4275790000000000000000000000000000000000000000000000000000000000600082015250565b6000612755600383611cab565b91506127608261271f565b602082019050919050565b6000606082019050818103600083015261278481612748565b90506127936020830185611e76565b6127a06040830184611df9565b9392505050565b60006127b282611c3d565b915060008214156127c6576127c56122d5565b5b60018203905091905056fea2646970667358221220966260df78c8a5b8eed434c8e4c9408291590e1925ac3665defa75aa48ec0bb764736f6c634300080b0033",
  "immutableReferences": {},
  "source": "import \"./utils/Ownable.sol\";\r\nimport \"./MapMarketPlace.sol\";\r\n\r\n// SPDX-License-Identifier: UNLICENSED\r\npragma solidity ^0.8.11;\r\n\r\ncontract MapCore is Ownable, MapMarketPlace {\r\nuint256 value = 0;\r\n\r\nconstructor() {\r\n\r\n    // We are creating the first map at index 0 \r\n    _createMap('',address(0));\r\n  }\r\n\r\n  function createMap(string memory _map) public onlyOwner {\r\n\r\n    // Gen0 have no owners they are own by the contract\r\n    uint256 tokenId = _createMap(_map,msg.sender);\r\n    setOffer(0.2 ether, tokenId);\r\n  }\r\n\r\nfunction getMap(uint256 _id)\r\n    public\r\n    view\r\n    returns (\r\n    string memory mapId\r\n  ) {\r\n    Map storage _objMap = maps[_id];\r\n\r\n    require(_objMap.creationTime > 0, \"the map doesn't exist\");\r\n\r\n    mapId = string(_objMap.mapIds);    \r\n  }\r\n}",
  "sourcePath": "E:\\Personal\\Blockchain\\NFT\\NFT_New\\NFT_updated\\contracts\\MapCore.sol",
  "compiler": {
    "name": "solc",
    "version": "0.8.11+commit.d7f03943.Emscripten.clang"
  },
  "schemaVersion": "3.4.4",
  "updatedAt": "2022-11-12T06:03:48.604Z",
  "devdoc": {
    "kind": "dev",
    "methods": {
      "transferOwnership(address)": {
        "details": "Allows the current owner to transfer control of the contract to a newOwner.",
        "params": {
          "newOwner": "The address to transfer ownership to."
        }
      }
    },
    "version": 1
  },
  "userdoc": {
    "kind": "user",
    "methods": {},
    "version": 1
  }
}