{
  "_format": "hh-sol-artifact-1",
  "contractName": "MapCore",
  "sourceName": "contracts/MapCore.sol",
  "abi": [
    {
      "inputs": [],
      "stateMutability": "nonpayable",
      "type": "constructor"
    },
    {
      "anonymous": false,
      "inputs": [
        {
          "indexed": false,
          "internalType": "address",
          "name": "owner",
          "type": "address"
        },
        {
          "indexed": false,
          "internalType": "address",
          "name": "approved",
          "type": "address"
        },
        {
          "indexed": false,
          "internalType": "uint256",
          "name": "tokenId",
          "type": "uint256"
        }
      ],
      "name": "Approval",
      "type": "event"
    },
    {
      "anonymous": false,
      "inputs": [
        {
          "indexed": false,
          "internalType": "uint256",
          "name": "mapId",
          "type": "uint256"
        }
      ],
      "name": "MapCreated",
      "type": "event"
    },
    {
      "anonymous": false,
      "inputs": [
        {
          "indexed": false,
          "internalType": "string",
          "name": "TxType",
          "type": "string"
        },
        {
          "indexed": false,
          "internalType": "address",
          "name": "owner",
          "type": "address"
        },
        {
          "indexed": false,
          "internalType": "uint256",
          "name": "tokenId",
          "type": "uint256"
        }
      ],
      "name": "MarketTransaction",
      "type": "event"
    },
    {
      "anonymous": false,
      "inputs": [
        {
          "indexed": false,
          "internalType": "address",
          "name": "from",
          "type": "address"
        },
        {
          "indexed": false,
          "internalType": "address",
          "name": "to",
          "type": "address"
        },
        {
          "indexed": false,
          "internalType": "uint256",
          "name": "tokenId",
          "type": "uint256"
        }
      ],
      "name": "Transfer",
      "type": "event"
    },
    {
      "inputs": [
        {
          "internalType": "address",
          "name": "_to",
          "type": "address"
        },
        {
          "internalType": "uint256",
          "name": "_tokenId",
          "type": "uint256"
        }
      ],
      "name": "approve",
      "outputs": [],
      "stateMutability": "nonpayable",
      "type": "function"
    },
    {
      "inputs": [
        {
          "internalType": "address",
          "name": "_owner",
          "type": "address"
        }
      ],
      "name": "balanceOf",
      "outputs": [
        {
          "internalType": "uint256",
          "name": "count",
          "type": "uint256"
        }
      ],
      "stateMutability": "view",
      "type": "function"
    },
    {
      "inputs": [
        {
          "internalType": "uint256",
          "name": "_tokenId",
          "type": "uint256"
        }
      ],
      "name": "buyMap",
      "outputs": [],
      "stateMutability": "payable",
      "type": "function"
    },
    {
      "inputs": [
        {
          "internalType": "string",
          "name": "_map",
          "type": "string"
        }
      ],
      "name": "createMap",
      "outputs": [],
      "stateMutability": "nonpayable",
      "type": "function"
    },
    {
      "inputs": [],
      "name": "getAllTokenOnSale",
      "outputs": [
        {
          "internalType": "uint256[]",
          "name": "listOfToken",
          "type": "uint256[]"
        }
      ],
      "stateMutability": "view",
      "type": "function"
    },
    {
      "inputs": [
        {
          "internalType": "uint256",
          "name": "_id",
          "type": "uint256"
        }
      ],
      "name": "getMap",
      "outputs": [
        {
          "internalType": "string",
          "name": "mapId",
          "type": "string"
        }
      ],
      "stateMutability": "view",
      "type": "function"
    },
    {
      "inputs": [
        {
          "internalType": "uint256",
          "name": "_tokenId",
          "type": "uint256"
        }
      ],
      "name": "getOffer",
      "outputs": [
        {
          "internalType": "address",
          "name": "seller",
          "type": "address"
        },
        {
          "internalType": "uint256",
          "name": "price",
          "type": "uint256"
        },
        {
          "internalType": "uint256",
          "name": "tokenId",
          "type": "uint256"
        }
      ],
      "stateMutability": "view",
      "type": "function"
    },
    {
      "inputs": [
        {
          "internalType": "uint256",
          "name": "",
          "type": "uint256"
        }
      ],
      "name": "mapIndexToApproved",
      "outputs": [
        {
          "internalType": "address",
          "name": "",
          "type": "address"
        }
      ],
      "stateMutability": "view",
      "type": "function"
    },
    {
      "inputs": [
        {
          "internalType": "uint256",
          "name": "",
          "type": "uint256"
        }
      ],
      "name": "mapIndexToOwner",
      "outputs": [
        {
          "internalType": "address",
          "name": "",
          "type": "address"
        }
      ],
      "stateMutability": "view",
      "type": "function"
    },
    {
      "inputs": [],
      "name": "name",
      "outputs": [
        {
          "internalType": "string",
          "name": "",
          "type": "string"
        }
      ],
      "stateMutability": "view",
      "type": "function"
    },
    {
      "inputs": [],
      "name": "owner",
      "outputs": [
        {
          "internalType": "address",
          "name": "",
          "type": "address"
        }
      ],
      "stateMutability": "view",
      "type": "function"
    },
    {
      "inputs": [
        {
          "internalType": "uint256",
          "name": "_tokenId",
          "type": "uint256"
        }
      ],
      "name": "ownerOf",
      "outputs": [
        {
          "internalType": "address",
          "name": "owner",
          "type": "address"
        }
      ],
      "stateMutability": "view",
      "type": "function"
    },
    {
      "inputs": [
        {
          "internalType": "uint256",
          "name": "_tokenId",
          "type": "uint256"
        }
      ],
      "name": "removeOffer",
      "outputs": [],
      "stateMutability": "nonpayable",
      "type": "function"
    },
    {
      "inputs": [
        {
          "internalType": "uint256",
          "name": "_price",
          "type": "uint256"
        },
        {
          "internalType": "uint256",
          "name": "_tokenId",
          "type": "uint256"
        }
      ],
      "name": "setOffer",
      "outputs": [],
      "stateMutability": "nonpayable",
      "type": "function"
    },
    {
      "inputs": [
        {
          "internalType": "bytes4",
          "name": "_interfaceID",
          "type": "bytes4"
        }
      ],
      "name": "supportsInterface",
      "outputs": [
        {
          "internalType": "bool",
          "name": "",
          "type": "bool"
        }
      ],
      "stateMutability": "pure",
      "type": "function"
    },
    {
      "inputs": [],
      "name": "symbol",
      "outputs": [
        {
          "internalType": "string",
          "name": "",
          "type": "string"
        }
      ],
      "stateMutability": "view",
      "type": "function"
    },
    {
      "inputs": [
        {
          "internalType": "address",
          "name": "_owner",
          "type": "address"
        }
      ],
      "name": "tokensOfOwner",
      "outputs": [
        {
          "internalType": "uint256[]",
          "name": "ownerTokens",
          "type": "uint256[]"
        }
      ],
      "stateMutability": "view",
      "type": "function"
    },
    {
      "inputs": [],
      "name": "totalSupply",
      "outputs": [
        {
          "internalType": "uint256",
          "name": "",
          "type": "uint256"
        }
      ],
      "stateMutability": "view",
      "type": "function"
    },
    {
      "inputs": [
        {
          "internalType": "address",
          "name": "_to",
          "type": "address"
        },
        {
          "internalType": "uint256",
          "name": "_tokenId",
          "type": "uint256"
        }
      ],
      "name": "transfer",
      "outputs": [],
      "stateMutability": "nonpayable",
      "type": "function"
    },
    {
      "inputs": [
        {
          "internalType": "address",
          "name": "_from",
          "type": "address"
        },
        {
          "internalType": "address",
          "name": "_to",
          "type": "address"
        },
        {
          "internalType": "uint256",
          "name": "_tokenId",
          "type": "uint256"
        }
      ],
      "name": "transferFrom",
      "outputs": [],
      "stateMutability": "nonpayable",
      "type": "function"
    },
    {
      "inputs": [
        {
          "internalType": "address",
          "name": "newOwner",
          "type": "address"
        }
      ],
      "name": "transferOwnership",
      "outputs": [],
      "stateMutability": "nonpayable",
      "type": "function"
    }
  ],
  "bytecode": "0x608060405260006008553480156200001657600080fd5b50336000806101000a81548173ffffffffffffffffffffffffffffffffffffffff021916908373ffffffffffffffffffffffffffffffffffffffff160217905550620000796040518060200160405280600081525060006200008060201b60201c565b5062000846565b60008060405180604001604052804267ffffffffffffffff168152602001858152509050600181908060018154018082558091505060019003906000526020600020906002020160009091909190915060008201518160000160006101000a81548167ffffffffffffffff021916908367ffffffffffffffff1602179055506020820151816001019081620001169190620005ca565b505050600060018054905090506000600182620001349190620006e0565b90508063ffffffff1681146200014957600080fd5b7f78f328f36b68e2e3b4ffe5dbfe21573cd7f56d4c27664e76413db2496d421e9d816040516200017a91906200072c565b60405180910390a16200019660008683620001a260201b60201c565b80935050505092915050565b600360008373ffffffffffffffffffffffffffffffffffffffff1673ffffffffffffffffffffffffffffffffffffffff1681526020019081526020016000206000815480929190620001f49062000749565b9190505550816002600083815260200190815260200160002060006101000a81548173ffffffffffffffffffffffffffffffffffffffff021916908373ffffffffffffffffffffffffffffffffffffffff160217905550600073ffffffffffffffffffffffffffffffffffffffff168373ffffffffffffffffffffffffffffffffffffffff16146200030e57600360008473ffffffffffffffffffffffffffffffffffffffff1673ffffffffffffffffffffffffffffffffffffffff1681526020019081526020016000206000815480929190620002d29062000796565b91905055506004600082815260200190815260200160002060006101000a81549073ffffffffffffffffffffffffffffffffffffffff02191690555b7fddf252ad1be2c89b69c2b068fc378daa952ba7f163c4a11628f55a4df523b3ef838383604051620003439392919062000809565b60405180910390a1505050565b600081519050919050565b7f4e487b7100000000000000000000000000000000000000000000000000000000600052604160045260246000fd5b7f4e487b7100000000000000000000000000000000000000000000000000000000600052602260045260246000fd5b60006002820490506001821680620003d257607f821691505b602082108103620003e857620003e76200038a565b5b50919050565b60008190508160005260206000209050919050565b60006020601f8301049050919050565b600082821b905092915050565b600060088302620004527fffffffffffffffffffffffffffffffffffffffffffffffffffffffffffffffff8262000413565b6200045e868362000413565b95508019841693508086168417925050509392505050565b6000819050919050565b6000819050919050565b6000620004ab620004a56200049f8462000476565b62000480565b62000476565b9050919050565b6000819050919050565b620004c7836200048a565b620004df620004d682620004b2565b84845462000420565b825550505050565b600090565b620004f6620004e7565b62000503818484620004bc565b505050565b5b818110156200052b576200051f600082620004ec565b60018101905062000509565b5050565b601f8211156200057a576200054481620003ee565b6200054f8462000403565b810160208510156200055f578190505b620005776200056e8562000403565b83018262000508565b50505b505050565b600082821c905092915050565b60006200059f600019846008026200057f565b1980831691505092915050565b6000620005ba83836200058c565b9150826002028217905092915050565b620005d58262000350565b67ffffffffffffffff811115620005f157620005f06200035b565b5b620005fd8254620003b9565b6200060a8282856200052f565b600060209050601f8311600181146200064257600084156200062d578287015190505b620006398582620005ac565b865550620006a9565b601f1984166200065286620003ee565b60005b828110156200067c5784890151825560018201915060208501945060208101905062000655565b868310156200069c578489015162000698601f8916826200058c565b8355505b6001600288020188555050505b505050505050565b7f4e487b7100000000000000000000000000000000000000000000000000000000600052601160045260246000fd5b6000620006ed8262000476565b9150620006fa8362000476565b9250828203905081811115620007155762000714620006b1565b5b92915050565b620007268162000476565b82525050565b60006020820190506200074360008301846200071b565b92915050565b6000620007568262000476565b91507fffffffffffffffffffffffffffffffffffffffffffffffffffffffffffffffff82036200078b576200078a620006b1565b5b600182019050919050565b6000620007a38262000476565b915060008203620007b957620007b8620006b1565b5b600182039050919050565b600073ffffffffffffffffffffffffffffffffffffffff82169050919050565b6000620007f182620007c4565b9050919050565b6200080381620007e4565b82525050565b6000606082019050620008206000830186620007f8565b6200082f6020830185620007f8565b6200083e60408301846200071b565b949350505050565b61297180620008566000396000f3fe60806040526004361061012a5760003560e01c80638462151c116100ab57806395d89b411161006f57806395d89b411461042c578063a9059cbb14610457578063cbb39e9e14610480578063d63addf8146104a9578063e8c6e455146104c5578063f2fde38b146105025761012a565b80638462151c146103355780638da5cb5b14610372578063941b055b1461039d578063945c8a1d146103c657806395a0f9c7146104035761012a565b806323b872dd116100f257806323b872dd146102285780634579268a1461025157806349b3709f146102905780636352211e146102bb57806370a08231146102f85761012a565b806301ffc9a71461012f578063025799f01461016c57806306fdde03146101a9578063095ea7b3146101d457806318160ddd146101fd575b600080fd5b34801561013b57600080fd5b5061015660048036038101906101519190611ad2565b61052b565b6040516101639190611b1a565b60405180910390f35b34801561017857600080fd5b50610193600480360381019061018e9190611b6b565b61072f565b6040516101a09190611c28565b60405180910390f35b3480156101b557600080fd5b506101be610851565b6040516101cb9190611c28565b60405180910390f35b3480156101e057600080fd5b506101fb60048036038101906101f69190611ca8565b61088a565b005b34801561020957600080fd5b506102126108e6565b60405161021f9190611cf7565b60405180910390f35b34801561023457600080fd5b5061024f600480360381019061024a9190611d12565b6108fe565b005b34801561025d57600080fd5b5061027860048036038101906102739190611b6b565b61096d565b60405161028793929190611d74565b60405180910390f35b34801561029c57600080fd5b506102a56109c5565b6040516102b29190611e69565b60405180910390f35b3480156102c757600080fd5b506102e260048036038101906102dd9190611b6b565b610b13565b6040516102ef9190611e8b565b60405180910390f35b34801561030457600080fd5b5061031f600480360381019061031a9190611ea6565b610b89565b60405161032c9190611cf7565b60405180910390f35b34801561034157600080fd5b5061035c60048036038101906103579190611ea6565b610bd2565b6040516103699190611e69565b60405180910390f35b34801561037e57600080fd5b50610387610d59565b6040516103949190611e8b565b60405180910390f35b3480156103a957600080fd5b506103c460048036038101906103bf9190611ed3565b610d7d565b005b3480156103d257600080fd5b506103ed60048036038101906103e89190611b6b565b610fcc565b6040516103fa9190611e8b565b60405180910390f35b34801561040f57600080fd5b5061042a60048036038101906104259190611b6b565b610fff565b005b34801561043857600080fd5b50610441611248565b60405161044e9190611c28565b60405180910390f35b34801561046357600080fd5b5061047e60048036038101906104799190611ca8565b611281565b005b34801561048c57600080fd5b506104a760048036038101906104a29190612048565b6112dc565b005b6104c360048036038101906104be9190611b6b565b611300565b005b3480156104d157600080fd5b506104ec60048036038101906104e79190611b6b565b61152f565b6040516104f99190611e8b565b60405180910390f35b34801561050e57600080fd5b5061052960048036038101906105249190611ea6565b611562565b005b60007f01ffc9a7a5cef8baa21ed3c5c0d7e23accb804b619e9333b597f47a0d84076e27bffffffffffffffffffffffffffffffffffffffffffffffffffffffff1916827bffffffffffffffffffffffffffffffffffffffffffffffffffffffff1916148061072857507f0560ff44c470b66135b184f41c47840de0a42f8d70ee772ca647210e9eb3c8fd7f8462151cfcc0f257319f78db464014651918f3905b3d4bdab48d3f4618c542c17f23b872dd7302113369cda2901243429419bec145408fa8b352b3dd92b66c680b7fa9059cbb2ab09eb219583f4a59a5d0623ade346d962bcd4e46b11da047c9049b7f095ea7b334ae44009aa867bfb386f5c3b4b443ac6f0ee573fa91c4608fbadfba7f6352211e6566aa027e75ac9dbf2423197fbd9b82b9d981a3ab367d355866aa1c7f70a08231b98ef4ca268c9cc3f6b4590e4bfec28280db06bb5d45e689f2a360be7f18160ddd7f15c72528c2f94fd8dfe3c8d5aa26e2c50c7d81f4bc7bee8d4b79327f95d89b41e2f5f391a79ec54e9d87c79d6e777c63e32c28da95b4e9e4a79250ec7f06fdde0383f15d582d1a74511486c9ddf862a882fb7904b3d9fe9b8b8e58a7961818181818181818187bffffffffffffffffffffffffffffffffffffffffffffffffffffffff1916827bffffffffffffffffffffffffffffffffffffffffffffffffffffffff1916145b9050919050565b606060006001838154811061074757610746612091565b5b9060005260206000209060020201905060008160000160009054906101000a900467ffffffffffffffff1667ffffffffffffffff16116107bc576040517f08c379a00000000000000000000000000000000000000000000000000000000081526004016107b39061210c565b60405180910390fd5b8060010180546107cb9061215b565b80601f01602080910402602001604051908101604052809291908181526020018280546107f79061215b565b80156108445780601f1061081957610100808354040283529160200191610844565b820191906000526020600020905b81548152906001019060200180831161082757829003601f168201915b5050505050915050919050565b6040518060400160405280600b81526020017f4b65736176616e4d61707300000000000000000000000000000000000000000081525081565b6108943382611632565b61089d57600080fd5b6108a7818361169e565b7f8c5be1e5ebec7d5bd14f71427d1e84f3dd0314c0f7b2291e5b200ac8c7c3b9253383836040516108da9392919061218c565b60405180910390a15050565b6000600180805490506108f991906121f2565b905090565b600073ffffffffffffffffffffffffffffffffffffffff168273ffffffffffffffffffffffffffffffffffffffff160361093757600080fd5b61094133826116f4565b61094a57600080fd5b6109548382611632565b61095d57600080fd5b610968838383611760565b505050565b6000806000806006600086815260200190815260200160002090508060000160009054906101000a900473ffffffffffffffffffffffffffffffffffffffff1681600101548260020154935093509350509193909250565b60606000600580549050905060008103610a2b57600067ffffffffffffffff8111156109f4576109f3611f1d565b5b604051908082528060200260200182016040528015610a225781602001602082028036833780820191505090505b50915050610b10565b60008167ffffffffffffffff811115610a4757610a46611f1d565b5b604051908082528060200260200182016040528015610a755781602001602082028036833780820191505090505b50905060005b82811015610b0957600060058281548110610a9957610a98612091565b5b90600052602060002090600302016001015414610af65760058181548110610ac457610ac3612091565b5b906000526020600020906003020160020154828281518110610ae957610ae8612091565b5b6020026020010181815250505b8080610b0190612226565b915050610a7b565b8193505050505b90565b60006002600083815260200190815260200160002060009054906101000a900473ffffffffffffffffffffffffffffffffffffffff169050600073ffffffffffffffffffffffffffffffffffffffff168173ffffffffffffffffffffffffffffffffffffffff1603610b8457600080fd5b919050565b6000600360008373ffffffffffffffffffffffffffffffffffffffff1673ffffffffffffffffffffffffffffffffffffffff168152602001908152602001600020549050919050565b60606000610bdf83610b89565b905060008103610c3b57600067ffffffffffffffff811115610c0457610c03611f1d565b5b604051908082528060200260200182016040528015610c325781602001602082028036833780820191505090505b50915050610d54565b60008167ffffffffffffffff811115610c5757610c56611f1d565b5b604051908082528060200260200182016040528015610c855781602001602082028036833780820191505090505b5090506000610c926108e6565b9050600080600190505b828111610d4b578673ffffffffffffffffffffffffffffffffffffffff166002600083815260200190815260200160002060009054906101000a900473ffffffffffffffffffffffffffffffffffffffff1673ffffffffffffffffffffffffffffffffffffffff1603610d385780848381518110610d1d57610d1c612091565b5b6020026020010181815250508180610d3490612226565b9250505b8080610d4390612226565b915050610c9c565b83955050505050505b919050565b60008054906101000a900473ffffffffffffffffffffffffffffffffffffffff1681565b661ff973cafa80008211610dc6576040517f08c379a0000000000000000000000000000000000000000000000000000000008152600401610dbd906122e0565b60405180910390fd5b6000600660008381526020019081526020016000206001015414610e1f576040517f08c379a0000000000000000000000000000000000000000000000000000000008152600401610e1690612372565b60405180910390fd5b610e29308261088a565b600060405180606001604052803373ffffffffffffffffffffffffffffffffffffffff168152602001848152602001838152509050806006600084815260200190815260200160002060008201518160000160006101000a81548173ffffffffffffffffffffffffffffffffffffffff021916908373ffffffffffffffffffffffffffffffffffffffff1602179055506020820151816001015560408201518160020155905050600581908060018154018082558091505060019003906000526020600020906003020160009091909190915060008201518160000160006101000a81548173ffffffffffffffffffffffffffffffffffffffff021916908373ffffffffffffffffffffffffffffffffffffffff16021790555060208201518160010155604082015181600201555050600060058054905090506000600182610f7291906121f2565b90508060076000868152602001908152602001600020819055507fd99e4fad9ad6313b1feb588fa8e605e3a9873172f2024330c35dd2b4041a43863385604051610fbd9291906123de565b60405180910390a15050505050565b60026020528060005260406000206000915054906101000a900473ffffffffffffffffffffffffffffffffffffffff1681565b6110093382611632565b611048576040517f08c379a000000000000000000000000000000000000000000000000000000000815260040161103f90612466565b60405180910390fd5b6000600660008381526020019081526020016000206040518060600160405290816000820160009054906101000a900473ffffffffffffffffffffffffffffffffffffffff1673ffffffffffffffffffffffffffffffffffffffff1673ffffffffffffffffffffffffffffffffffffffff1681526020016001820154815260200160028201548152505090503373ffffffffffffffffffffffffffffffffffffffff16816000015173ffffffffffffffffffffffffffffffffffffffff1614611146576040517f08c379a000000000000000000000000000000000000000000000000000000000815260040161113d906124f8565b60405180910390fd5b600560076000848152602001908152602001600020548154811061116d5761116c612091565b5b9060005260206000209060030201600080820160006101000a81549073ffffffffffffffffffffffffffffffffffffffff021916905560018201600090556002820160009055505060066000838152602001908152602001600020600080820160006101000a81549073ffffffffffffffffffffffffffffffffffffffff021916905560018201600090556002820160009055505061120b82611907565b7fd99e4fad9ad6313b1feb588fa8e605e3a9873172f2024330c35dd2b4041a4386338360405161123c929190612564565b60405180910390a15050565b6040518060400160405280600281526020017f434b00000000000000000000000000000000000000000000000000000000000081525081565b600073ffffffffffffffffffffffffffffffffffffffff168273ffffffffffffffffffffffffffffffffffffffff16036112ba57600080fd5b6112c43382611632565b6112cd57600080fd5b6112d8338383611760565b5050565b60006112e88233611953565b90506112fc6702c68af0bb14000082610d7d565b5050565b6000600660008381526020019081526020016000206040518060600160405290816000820160009054906101000a900473ffffffffffffffffffffffffffffffffffffffff1673ffffffffffffffffffffffffffffffffffffffff1673ffffffffffffffffffffffffffffffffffffffff168152602001600182015481526020016002820154815250509050806020015134146113d2576040517f08c379a00000000000000000000000000000000000000000000000000000000081526004016113c9906125ec565b60405180910390fd5b60056007600084815260200190815260200160002054815481106113f9576113f8612091565b5b9060005260206000209060030201600080820160006101000a81549073ffffffffffffffffffffffffffffffffffffffff021916905560018201600090556002820160009055505060066000838152602001908152602001600020600080820160006101000a81549073ffffffffffffffffffffffffffffffffffffffff0219169055600182016000905560028201600090555050611498823361169e565b6114a7816000015133846108fe565b806000015173ffffffffffffffffffffffffffffffffffffffff166108fc349081150290604051600060405180830381858888f193505050501580156114f1573d6000803e3d6000fd5b507fd99e4fad9ad6313b1feb588fa8e605e3a9873172f2024330c35dd2b4041a43863383604051611523929190612658565b60405180910390a15050565b60046020528060005260406000206000915054906101000a900473ffffffffffffffffffffffffffffffffffffffff1681565b60008054906101000a900473ffffffffffffffffffffffffffffffffffffffff1673ffffffffffffffffffffffffffffffffffffffff163373ffffffffffffffffffffffffffffffffffffffff16146115ba57600080fd5b600073ffffffffffffffffffffffffffffffffffffffff168173ffffffffffffffffffffffffffffffffffffffff161461162f57806000806101000a81548173ffffffffffffffffffffffffffffffffffffffff021916908373ffffffffffffffffffffffffffffffffffffffff1602179055505b50565b60008273ffffffffffffffffffffffffffffffffffffffff166002600084815260200190815260200160002060009054906101000a900473ffffffffffffffffffffffffffffffffffffffff1673ffffffffffffffffffffffffffffffffffffffff1614905092915050565b806004600084815260200190815260200160002060006101000a81548173ffffffffffffffffffffffffffffffffffffffff021916908373ffffffffffffffffffffffffffffffffffffffff1602179055505050565b60008273ffffffffffffffffffffffffffffffffffffffff166004600084815260200190815260200160002060009054906101000a900473ffffffffffffffffffffffffffffffffffffffff1673ffffffffffffffffffffffffffffffffffffffff1614905092915050565b600360008373ffffffffffffffffffffffffffffffffffffffff1673ffffffffffffffffffffffffffffffffffffffff16815260200190815260200160002060008154809291906117b090612226565b9190505550816002600083815260200190815260200160002060006101000a81548173ffffffffffffffffffffffffffffffffffffffff021916908373ffffffffffffffffffffffffffffffffffffffff160217905550600073ffffffffffffffffffffffffffffffffffffffff168373ffffffffffffffffffffffffffffffffffffffff16146118c757600360008473ffffffffffffffffffffffffffffffffffffffff1673ffffffffffffffffffffffffffffffffffffffff168152602001908152602001600020600081548092919061188b90612694565b91905055506004600082815260200190815260200160002060006101000a81549073ffffffffffffffffffffffffffffffffffffffff02191690555b7fddf252ad1be2c89b69c2b068fc378daa952ba7f163c4a11628f55a4df523b3ef8383836040516118fa9392919061218c565b60405180910390a1505050565b6119113382611632565b61191a57600080fd5b6004600082815260200190815260200160002060006101000a81549073ffffffffffffffffffffffffffffffffffffffff021916905550565b60008060405180604001604052804267ffffffffffffffff168152602001858152509050600181908060018154018082558091505060019003906000526020600020906002020160009091909190915060008201518160000160006101000a81548167ffffffffffffffff021916908367ffffffffffffffff16021790555060208201518160010190816119e79190612869565b505050600060018054905090506000600182611a0391906121f2565b90508063ffffffff168114611a1757600080fd5b7f78f328f36b68e2e3b4ffe5dbfe21573cd7f56d4c27664e76413db2496d421e9d81604051611a469190611cf7565b60405180910390a1611a5a60008683611760565b80935050505092915050565b6000604051905090565b600080fd5b600080fd5b60007fffffffff0000000000000000000000000000000000000000000000000000000082169050919050565b611aaf81611a7a565b8114611aba57600080fd5b50565b600081359050611acc81611aa6565b92915050565b600060208284031215611ae857611ae7611a70565b5b6000611af684828501611abd565b91505092915050565b60008115159050919050565b611b1481611aff565b82525050565b6000602082019050611b2f6000830184611b0b565b92915050565b6000819050919050565b611b4881611b35565b8114611b5357600080fd5b50565b600081359050611b6581611b3f565b92915050565b600060208284031215611b8157611b80611a70565b5b6000611b8f84828501611b56565b91505092915050565b600081519050919050565b600082825260208201905092915050565b60005b83811015611bd2578082015181840152602081019050611bb7565b60008484015250505050565b6000601f19601f8301169050919050565b6000611bfa82611b98565b611c048185611ba3565b9350611c14818560208601611bb4565b611c1d81611bde565b840191505092915050565b60006020820190508181036000830152611c428184611bef565b905092915050565b600073ffffffffffffffffffffffffffffffffffffffff82169050919050565b6000611c7582611c4a565b9050919050565b611c8581611c6a565b8114611c9057600080fd5b50565b600081359050611ca281611c7c565b92915050565b60008060408385031215611cbf57611cbe611a70565b5b6000611ccd85828601611c93565b9250506020611cde85828601611b56565b9150509250929050565b611cf181611b35565b82525050565b6000602082019050611d0c6000830184611ce8565b92915050565b600080600060608486031215611d2b57611d2a611a70565b5b6000611d3986828701611c93565b9350506020611d4a86828701611c93565b9250506040611d5b86828701611b56565b9150509250925092565b611d6e81611c6a565b82525050565b6000606082019050611d896000830186611d65565b611d966020830185611ce8565b611da36040830184611ce8565b949350505050565b600081519050919050565b600082825260208201905092915050565b6000819050602082019050919050565b611de081611b35565b82525050565b6000611df28383611dd7565b60208301905092915050565b6000602082019050919050565b6000611e1682611dab565b611e208185611db6565b9350611e2b83611dc7565b8060005b83811015611e5c578151611e438882611de6565b9750611e4e83611dfe565b925050600181019050611e2f565b5085935050505092915050565b60006020820190508181036000830152611e838184611e0b565b905092915050565b6000602082019050611ea06000830184611d65565b92915050565b600060208284031215611ebc57611ebb611a70565b5b6000611eca84828501611c93565b91505092915050565b60008060408385031215611eea57611ee9611a70565b5b6000611ef885828601611b56565b9250506020611f0985828601611b56565b9150509250929050565b600080fd5b600080fd5b7f4e487b7100000000000000000000000000000000000000000000000000000000600052604160045260246000fd5b611f5582611bde565b810181811067ffffffffffffffff82111715611f7457611f73611f1d565b5b80604052505050565b6000611f87611a66565b9050611f938282611f4c565b919050565b600067ffffffffffffffff821115611fb357611fb2611f1d565b5b611fbc82611bde565b9050602081019050919050565b82818337600083830152505050565b6000611feb611fe684611f98565b611f7d565b90508281526020810184848401111561200757612006611f18565b5b612012848285611fc9565b509392505050565b600082601f83011261202f5761202e611f13565b5b813561203f848260208601611fd8565b91505092915050565b60006020828403121561205e5761205d611a70565b5b600082013567ffffffffffffffff81111561207c5761207b611a75565b5b6120888482850161201a565b91505092915050565b7f4e487b7100000000000000000000000000000000000000000000000000000000600052603260045260246000fd5b7f746865206d617020646f65736e27742065786973740000000000000000000000600082015250565b60006120f6601583611ba3565b9150612101826120c0565b602082019050919050565b60006020820190508181036000830152612125816120e9565b9050919050565b7f4e487b7100000000000000000000000000000000000000000000000000000000600052602260045260246000fd5b6000600282049050600182168061217357607f821691505b6020821081036121865761218561212c565b5b50919050565b60006060820190506121a16000830186611d65565b6121ae6020830185611d65565b6121bb6040830184611ce8565b949350505050565b7f4e487b7100000000000000000000000000000000000000000000000000000000600052601160045260246000fd5b60006121fd82611b35565b915061220883611b35565b92508282039050818111156122205761221f6121c3565b5b92915050565b600061223182611b35565b91507fffffffffffffffffffffffffffffffffffffffffffffffffffffffffffffffff8203612263576122626121c3565b5b600182019050919050565b7f4361742070726963652073686f756c642062652067726561746572207468616e60008201527f20302e3031000000000000000000000000000000000000000000000000000000602082015250565b60006122ca602583611ba3565b91506122d58261226e565b604082019050919050565b600060208201905081810360008301526122f9816122bd565b9050919050565b7f596f752063616e27742073656c6c207477696365207468652073616d65206f6660008201527f6665727320000000000000000000000000000000000000000000000000000000602082015250565b600061235c602583611ba3565b915061236782612300565b604082019050919050565b6000602082019050818103600083015261238b8161234f565b9050919050565b7f437265617465206f666665720000000000000000000000000000000000000000600082015250565b60006123c8600c83611ba3565b91506123d382612392565b602082019050919050565b600060608201905081810360008301526123f7816123bb565b90506124066020830185611d65565b6124136040830184611ce8565b9392505050565b7f546865207573657220646f65736e2774206f776e2074686520746f6b656e0000600082015250565b6000612450601e83611ba3565b915061245b8261241a565b602082019050919050565b6000602082019050818103600083015261247f81612443565b9050919050565b7f596f752073686f756c64206f776e20746865206d617020746f2062652061626c60008201527f6520746f2072656d6f76652074686973206f6666657200000000000000000000602082015250565b60006124e2603683611ba3565b91506124ed82612486565b604082019050919050565b60006020820190508181036000830152612511816124d5565b9050919050565b7f52656d6f7665206f666665720000000000000000000000000000000000000000600082015250565b600061254e600c83611ba3565b915061255982612518565b602082019050919050565b6000606082019050818103600083015261257d81612541565b905061258c6020830185611d65565b6125996040830184611ce8565b9392505050565b7f546865207072696365206973206e6f7420636f72726563740000000000000000600082015250565b60006125d6601883611ba3565b91506125e1826125a0565b602082019050919050565b60006020820190508181036000830152612605816125c9565b9050919050565b7f4275790000000000000000000000000000000000000000000000000000000000600082015250565b6000612642600383611ba3565b915061264d8261260c565b602082019050919050565b6000606082019050818103600083015261267181612635565b90506126806020830185611d65565b61268d6040830184611ce8565b9392505050565b600061269f82611b35565b9150600082036126b2576126b16121c3565b5b600182039050919050565b60008190508160005260206000209050919050565b60006020601f8301049050919050565b600082821b905092915050565b60006008830261271f7fffffffffffffffffffffffffffffffffffffffffffffffffffffffffffffffff826126e2565b61272986836126e2565b95508019841693508086168417925050509392505050565b6000819050919050565b600061276661276161275c84611b35565b612741565b611b35565b9050919050565b6000819050919050565b6127808361274b565b61279461278c8261276d565b8484546126ef565b825550505050565b600090565b6127a961279c565b6127b4818484612777565b505050565b5b818110156127d8576127cd6000826127a1565b6001810190506127ba565b5050565b601f82111561281d576127ee816126bd565b6127f7846126d2565b81016020851015612806578190505b61281a612812856126d2565b8301826127b9565b50505b505050565b600082821c905092915050565b600061284060001984600802612822565b1980831691505092915050565b6000612859838361282f565b9150826002028217905092915050565b61287282611b98565b67ffffffffffffffff81111561288b5761288a611f1d565b5b612895825461215b565b6128a08282856127dc565b600060209050601f8311600181146128d357600084156128c1578287015190505b6128cb858261284d565b865550612933565b601f1984166128e1866126bd565b60005b82811015612909578489015182556001820191506020850194506020810190506128e4565b868310156129265784890151612922601f89168261282f565b8355505b6001600288020188555050505b50505050505056fea264697066735822122056d7d8219358bfae70fea5f9eed6f9bf78fd025711a685529b778777e736772764736f6c63430008110033",
  "linkReferences": {},
  "deployedLinkReferences": {}
}