{
  "contractName": "MapFactory",
  "abi": [
    {
      "anonymous": false,
      "inputs": [
        {
          "indexed": false,
          "internalType": "uint256",
          "name": "mapId",
          "type": "uint256"
        }
      ],
      "name": "MapCreated",
      "type": "event"
    },
    {
      "anonymous": false,
      "inputs": [
        {
          "indexed": false,
          "internalType": "address",
          "name": "from",
          "type": "address"
        },
        {
          "indexed": false,
          "internalType": "address",
          "name": "to",
          "type": "address"
        },
        {
          "indexed": false,
          "internalType": "uint256",
          "name": "tokenId",
          "type": "uint256"
        }
      ],
      "name": "Transfer",
      "type": "event"
    },
    {
      "inputs": [
        {
          "internalType": "uint256",
          "name": "",
          "type": "uint256"
        }
      ],
      "name": "mapIndexToApproved",
      "outputs": [
        {
          "internalType": "address",
          "name": "",
          "type": "address"
        }
      ],
      "stateMutability": "view",
      "type": "function"
    },
    {
      "inputs": [
        {
          "internalType": "uint256",
          "name": "",
          "type": "uint256"
        }
      ],
      "name": "mapIndexToOwner",
      "outputs": [
        {
          "internalType": "address",
          "name": "",
          "type": "address"
        }
      ],
      "stateMutability": "view",
      "type": "function"
    }
  ],
  "bytecode": "0x608060405234801561001057600080fd5b506101fb806100206000396000f3fe608060405234801561001057600080fd5b50600436106100365760003560e01c8063945c8a1d1461003b578063e8c6e4551461006b575b600080fd5b6100556004803603810190610050919061013c565b61009b565b60405161006291906101aa565b60405180910390f35b6100856004803603810190610080919061013c565b6100ce565b60405161009291906101aa565b60405180910390f35b60016020528060005260406000206000915054906101000a900473ffffffffffffffffffffffffffffffffffffffff1681565b60036020528060005260406000206000915054906101000a900473ffffffffffffffffffffffffffffffffffffffff1681565b600080fd5b6000819050919050565b61011981610106565b811461012457600080fd5b50565b60008135905061013681610110565b92915050565b60006020828403121561015257610151610101565b5b600061016084828501610127565b91505092915050565b600073ffffffffffffffffffffffffffffffffffffffff82169050919050565b600061019482610169565b9050919050565b6101a481610189565b82525050565b60006020820190506101bf600083018461019b565b9291505056fea26469706673582212202f1eaf27b51390a48d72099fd8aebee8fddacd41127dace918506d7c581e59bf64736f6c634300080b0033",
  "immutableReferences": {},
  "source": "// SPDX-License-Identifier: UNLICENSED\r\npragma solidity ^0.8.11;\r\n\r\ncontract MapFactory{\r\n\r\n/*\r\n  *   A new map is born\r\n  */\r\n  event MapCreated(uint256 mapId);\r\n\r\n  /*\r\n  *   A map has been transfer\r\n  */\r\n  event Transfer(address from, address to, uint256 tokenId);\r\n\r\n  /*  \r\n  *   As it fit exactly into two bit words\r\n  */\r\n  struct Map {      \r\n      uint64 creationTime;\r\n      string mapIds;\r\n  }\r\n\r\n  Map[] maps;\r\n\r\n  mapping (uint256 => address) public mapIndexToOwner;\r\n  mapping (address => uint256) ownershipTokenCount;\r\n\r\n  // Add a list of approved maps, that are allowed to be transfered\r\n  mapping (uint256 => address) public mapIndexToApproved;\r\n\r\n  function _createMap(string memory _mapIds,address _owner)\r\n      internal\r\n      returns (uint)\r\n  {\r\n\r\n    Map memory _map = Map({\r\n        mapIds : _mapIds,\r\n        creationTime: uint64(block.timestamp)        \r\n    });\r\n\r\n    maps.push(_map);\r\n    uint256 mapsLength = maps.length;\r\n\r\n    uint256 newMapId = mapsLength - 1;\r\n    \r\n    require(newMapId == uint256(uint32(newMapId)));\r\n\r\n    // emit the birth event\r\n    emit MapCreated(\r\n        newMapId        \r\n    );\r\n\r\n    // This will assign ownership, and also emit the Transfer event as\r\n    // per ERC721 draft\r\n    _transfer(address(0), _owner, newMapId);\r\n    return newMapId;\r\n  }\r\n\r\nfunction _transfer(address _from, address _to, uint256 _tokenId) internal {\r\n\r\n    // Since the number of kittens is capped to 2^32 we can't overflow this\r\n    ownershipTokenCount[_to]++;\r\n    // transfer ownership\r\n    mapIndexToOwner[_tokenId] = _to;\r\n\r\n    if (_from != address(0)) {\r\n        ownershipTokenCount[_from]--;\r\n\r\n        delete mapIndexToApproved[_tokenId];\r\n    }\r\n\r\n    // Emit the transfer event.\r\n    emit Transfer(_from, _to, _tokenId);\r\n  }\r\n}",
  "sourcePath": "E:\\Personal\\Blockchain\\NFT\\NFT_New\\NFT_updated\\contracts\\MapFactory.sol",
  "compiler": {
    "name": "solc",
    "version": "0.8.11+commit.d7f03943.Emscripten.clang"
  },
  "schemaVersion": "3.4.4",
  "updatedAt": "2022-11-12T03:12:49.346Z",
  "devdoc": {
    "kind": "dev",
    "methods": {},
    "version": 1
  },
  "userdoc": {
    "kind": "user",
    "methods": {},
    "version": 1
  }
}