{
  "contractName": "MapMarketPlace",
  "abi": [
    {
      "anonymous": false,
      "inputs": [
        {
          "indexed": false,
          "internalType": "address",
          "name": "owner",
          "type": "address"
        },
        {
          "indexed": false,
          "internalType": "address",
          "name": "approved",
          "type": "address"
        },
        {
          "indexed": false,
          "internalType": "uint256",
          "name": "tokenId",
          "type": "uint256"
        }
      ],
      "name": "Approval",
      "type": "event"
    },
    {
      "anonymous": false,
      "inputs": [
        {
          "indexed": false,
          "internalType": "uint256",
          "name": "mapId",
          "type": "uint256"
        }
      ],
      "name": "MapCreated",
      "type": "event"
    },
    {
      "anonymous": false,
      "inputs": [
        {
          "indexed": false,
          "internalType": "string",
          "name": "TxType",
          "type": "string"
        },
        {
          "indexed": false,
          "internalType": "address",
          "name": "owner",
          "type": "address"
        },
        {
          "indexed": false,
          "internalType": "uint256",
          "name": "tokenId",
          "type": "uint256"
        }
      ],
      "name": "MarketTransaction",
      "type": "event"
    },
    {
      "anonymous": false,
      "inputs": [
        {
          "indexed": false,
          "internalType": "address",
          "name": "from",
          "type": "address"
        },
        {
          "indexed": false,
          "internalType": "address",
          "name": "to",
          "type": "address"
        },
        {
          "indexed": false,
          "internalType": "uint256",
          "name": "tokenId",
          "type": "uint256"
        }
      ],
      "name": "Transfer",
      "type": "event"
    },
    {
      "inputs": [
        {
          "internalType": "address",
          "name": "_to",
          "type": "address"
        },
        {
          "internalType": "uint256",
          "name": "_tokenId",
          "type": "uint256"
        }
      ],
      "name": "approve",
      "outputs": [],
      "stateMutability": "nonpayable",
      "type": "function"
    },
    {
      "inputs": [
        {
          "internalType": "address",
          "name": "_owner",
          "type": "address"
        }
      ],
      "name": "balanceOf",
      "outputs": [
        {
          "internalType": "uint256",
          "name": "count",
          "type": "uint256"
        }
      ],
      "stateMutability": "view",
      "type": "function"
    },
    {
      "inputs": [
        {
          "internalType": "uint256",
          "name": "",
          "type": "uint256"
        }
      ],
      "name": "mapIndexToApproved",
      "outputs": [
        {
          "internalType": "address",
          "name": "",
          "type": "address"
        }
      ],
      "stateMutability": "view",
      "type": "function"
    },
    {
      "inputs": [
        {
          "internalType": "uint256",
          "name": "",
          "type": "uint256"
        }
      ],
      "name": "mapIndexToOwner",
      "outputs": [
        {
          "internalType": "address",
          "name": "",
          "type": "address"
        }
      ],
      "stateMutability": "view",
      "type": "function"
    },
    {
      "inputs": [],
      "name": "name",
      "outputs": [
        {
          "internalType": "string",
          "name": "",
          "type": "string"
        }
      ],
      "stateMutability": "view",
      "type": "function"
    },
    {
      "inputs": [
        {
          "internalType": "uint256",
          "name": "_tokenId",
          "type": "uint256"
        }
      ],
      "name": "ownerOf",
      "outputs": [
        {
          "internalType": "address",
          "name": "owner",
          "type": "address"
        }
      ],
      "stateMutability": "view",
      "type": "function"
    },
    {
      "inputs": [
        {
          "internalType": "bytes4",
          "name": "_interfaceID",
          "type": "bytes4"
        }
      ],
      "name": "supportsInterface",
      "outputs": [
        {
          "internalType": "bool",
          "name": "",
          "type": "bool"
        }
      ],
      "stateMutability": "pure",
      "type": "function"
    },
    {
      "inputs": [],
      "name": "symbol",
      "outputs": [
        {
          "internalType": "string",
          "name": "",
          "type": "string"
        }
      ],
      "stateMutability": "view",
      "type": "function"
    },
    {
      "inputs": [
        {
          "internalType": "address",
          "name": "_owner",
          "type": "address"
        }
      ],
      "name": "tokensOfOwner",
      "outputs": [
        {
          "internalType": "uint256[]",
          "name": "ownerTokens",
          "type": "uint256[]"
        }
      ],
      "stateMutability": "view",
      "type": "function"
    },
    {
      "inputs": [],
      "name": "totalSupply",
      "outputs": [
        {
          "internalType": "uint256",
          "name": "",
          "type": "uint256"
        }
      ],
      "stateMutability": "view",
      "type": "function"
    },
    {
      "inputs": [
        {
          "internalType": "address",
          "name": "_to",
          "type": "address"
        },
        {
          "internalType": "uint256",
          "name": "_tokenId",
          "type": "uint256"
        }
      ],
      "name": "transfer",
      "outputs": [],
      "stateMutability": "nonpayable",
      "type": "function"
    },
    {
      "inputs": [
        {
          "internalType": "address",
          "name": "_from",
          "type": "address"
        },
        {
          "internalType": "address",
          "name": "_to",
          "type": "address"
        },
        {
          "internalType": "uint256",
          "name": "_tokenId",
          "type": "uint256"
        }
      ],
      "name": "transferFrom",
      "outputs": [],
      "stateMutability": "nonpayable",
      "type": "function"
    },
    {
      "inputs": [
        {
          "internalType": "uint256",
          "name": "_tokenId",
          "type": "uint256"
        }
      ],
      "name": "getOffer",
      "outputs": [
        {
          "internalType": "address",
          "name": "seller",
          "type": "address"
        },
        {
          "internalType": "uint256",
          "name": "price",
          "type": "uint256"
        },
        {
          "internalType": "uint256",
          "name": "tokenId",
          "type": "uint256"
        }
      ],
      "stateMutability": "view",
      "type": "function"
    },
    {
      "inputs": [],
      "name": "getAllTokenOnSale",
      "outputs": [
        {
          "internalType": "uint256[]",
          "name": "listOfToken",
          "type": "uint256[]"
        }
      ],
      "stateMutability": "view",
      "type": "function"
    },
    {
      "inputs": [
        {
          "internalType": "uint256",
          "name": "_price",
          "type": "uint256"
        },
        {
          "internalType": "uint256",
          "name": "_tokenId",
          "type": "uint256"
        }
      ],
      "name": "setOffer",
      "outputs": [],
      "stateMutability": "nonpayable",
      "type": "function"
    },
    {
      "inputs": [
        {
          "internalType": "uint256",
          "name": "_tokenId",
          "type": "uint256"
        }
      ],
      "name": "removeOffer",
      "outputs": [],
      "stateMutability": "nonpayable",
      "type": "function"
    },
    {
      "inputs": [
        {
          "internalType": "uint256",
          "name": "_tokenId",
          "type": "uint256"
        }
      ],
      "name": "buyMap",
      "outputs": [],
      "stateMutability": "payable",
      "type": "function"
    }
  ],
  "bytecode": "0x608060405234801561001057600080fd5b506120a8806100206000396000f3fe6080604052600436106100fe5760003560e01c806370a082311161009557806395a0f9c71161006457806395a0f9c71461036f57806395d89b4114610398578063a9059cbb146103c3578063d63addf8146103ec578063e8c6e45514610408576100fe565b806370a082311461028f5780638462151c146102cc578063941b055b14610309578063945c8a1d14610332576100fe565b806323b872dd116100d157806323b872dd146101bf5780634579268a146101e857806349b3709f146102275780636352211e14610252576100fe565b806301ffc9a71461010357806306fdde0314610140578063095ea7b31461016b57806318160ddd14610194575b600080fd5b34801561010f57600080fd5b5061012a60048036038101906101259190611697565b610445565b60405161013791906116df565b60405180910390f35b34801561014c57600080fd5b50610155610649565b6040516101629190611793565b60405180910390f35b34801561017757600080fd5b50610192600480360381019061018d9190611849565b610682565b005b3480156101a057600080fd5b506101a96106de565b6040516101b69190611898565b60405180910390f35b3480156101cb57600080fd5b506101e660048036038101906101e191906118b3565b6106f7565b005b3480156101f457600080fd5b5061020f600480360381019061020a9190611906565b610767565b60405161021e93929190611942565b60405180910390f35b34801561023357600080fd5b5061023c6107bf565b6040516102499190611a37565b60405180910390f35b34801561025e57600080fd5b5061027960048036038101906102749190611906565b61090e565b6040516102869190611a59565b60405180910390f35b34801561029b57600080fd5b506102b660048036038101906102b19190611a74565b610985565b6040516102c39190611898565b60405180910390f35b3480156102d857600080fd5b506102f360048036038101906102ee9190611a74565b6109ce565b6040516103009190611a37565b60405180910390f35b34801561031557600080fd5b50610330600480360381019061032b9190611aa1565b610b57565b005b34801561033e57600080fd5b5061035960048036038101906103549190611906565b610da6565b6040516103669190611a59565b60405180910390f35b34801561037b57600080fd5b5061039660048036038101906103919190611906565b610dd9565b005b3480156103a457600080fd5b506103ad611022565b6040516103ba9190611793565b60405180910390f35b3480156103cf57600080fd5b506103ea60048036038101906103e59190611849565b61105b565b005b61040660048036038101906104019190611906565b6110b7565b005b34801561041457600080fd5b5061042f600480360381019061042a9190611906565b6112e6565b60405161043c9190611a59565b60405180910390f35b60007f01ffc9a7a5cef8baa21ed3c5c0d7e23accb804b619e9333b597f47a0d84076e27bffffffffffffffffffffffffffffffffffffffffffffffffffffffff1916827bffffffffffffffffffffffffffffffffffffffffffffffffffffffff1916148061064257507f0560ff44c470b66135b184f41c47840de0a42f8d70ee772ca647210e9eb3c8fd7f8462151cfcc0f257319f78db464014651918f3905b3d4bdab48d3f4618c542c17f23b872dd7302113369cda2901243429419bec145408fa8b352b3dd92b66c680b7fa9059cbb2ab09eb219583f4a59a5d0623ade346d962bcd4e46b11da047c9049b7f095ea7b334ae44009aa867bfb386f5c3b4b443ac6f0ee573fa91c4608fbadfba7f6352211e6566aa027e75ac9dbf2423197fbd9b82b9d981a3ab367d355866aa1c7f70a08231b98ef4ca268c9cc3f6b4590e4bfec28280db06bb5d45e689f2a360be7f18160ddd7f15c72528c2f94fd8dfe3c8d5aa26e2c50c7d81f4bc7bee8d4b79327f95d89b41e2f5f391a79ec54e9d87c79d6e777c63e32c28da95b4e9e4a79250ec7f06fdde0383f15d582d1a74511486c9ddf862a882fb7904b3d9fe9b8b8e58a7961818181818181818187bffffffffffffffffffffffffffffffffffffffffffffffffffffffff1916827bffffffffffffffffffffffffffffffffffffffffffffffffffffffff1916145b9050919050565b6040518060400160405280600b81526020017f4b65736176616e4d61707300000000000000000000000000000000000000000081525081565b61068c3382611319565b61069557600080fd5b61069f8183611385565b7f8c5be1e5ebec7d5bd14f71427d1e84f3dd0314c0f7b2291e5b200ac8c7c3b9253383836040516106d293929190611ae1565b60405180910390a15050565b600060016000805490506106f29190611b47565b905090565b600073ffffffffffffffffffffffffffffffffffffffff168273ffffffffffffffffffffffffffffffffffffffff16141561073157600080fd5b61073b33826113db565b61074457600080fd5b61074e8382611319565b61075757600080fd5b610762838383611447565b505050565b6000806000806005600086815260200190815260200160002090508060000160009054906101000a900473ffffffffffffffffffffffffffffffffffffffff1681600101548260020154935093509350509193909250565b606060006004805490509050600081141561082657600067ffffffffffffffff8111156107ef576107ee611b7b565b5b60405190808252806020026020018201604052801561081d5781602001602082028036833780820191505090505b5091505061090b565b60008167ffffffffffffffff81111561084257610841611b7b565b5b6040519080825280602002602001820160405280156108705781602001602082028036833780820191505090505b50905060005b828110156109045760006004828154811061089457610893611baa565b5b906000526020600020906003020160010154146108f157600481815481106108bf576108be611baa565b5b9060005260206000209060030201600201548282815181106108e4576108e3611baa565b5b6020026020010181815250505b80806108fc90611bd9565b915050610876565b8193505050505b90565b60006001600083815260200190815260200160002060009054906101000a900473ffffffffffffffffffffffffffffffffffffffff169050600073ffffffffffffffffffffffffffffffffffffffff168173ffffffffffffffffffffffffffffffffffffffff16141561098057600080fd5b919050565b6000600260008373ffffffffffffffffffffffffffffffffffffffff1673ffffffffffffffffffffffffffffffffffffffff168152602001908152602001600020549050919050565b606060006109db83610985565b90506000811415610a3857600067ffffffffffffffff811115610a0157610a00611b7b565b5b604051908082528060200260200182016040528015610a2f5781602001602082028036833780820191505090505b50915050610b52565b60008167ffffffffffffffff811115610a5457610a53611b7b565b5b604051908082528060200260200182016040528015610a825781602001602082028036833780820191505090505b5090506000610a8f6106de565b9050600080600190505b828111610b49578673ffffffffffffffffffffffffffffffffffffffff166001600083815260200190815260200160002060009054906101000a900473ffffffffffffffffffffffffffffffffffffffff1673ffffffffffffffffffffffffffffffffffffffff161415610b365780848381518110610b1b57610b1a611baa565b5b6020026020010181815250508180610b3290611bd9565b9250505b8080610b4190611bd9565b915050610a99565b83955050505050505b919050565b661ff973cafa80008211610ba0576040517f08c379a0000000000000000000000000000000000000000000000000000000008152600401610b9790611c94565b60405180910390fd5b6000600560008381526020019081526020016000206001015414610bf9576040517f08c379a0000000000000000000000000000000000000000000000000000000008152600401610bf090611d26565b60405180910390fd5b610c033082610682565b600060405180606001604052803373ffffffffffffffffffffffffffffffffffffffff168152602001848152602001838152509050806005600084815260200190815260200160002060008201518160000160006101000a81548173ffffffffffffffffffffffffffffffffffffffff021916908373ffffffffffffffffffffffffffffffffffffffff1602179055506020820151816001015560408201518160020155905050600481908060018154018082558091505060019003906000526020600020906003020160009091909190915060008201518160000160006101000a81548173ffffffffffffffffffffffffffffffffffffffff021916908373ffffffffffffffffffffffffffffffffffffffff16021790555060208201518160010155604082015181600201555050600060048054905090506000600182610d4c9190611b47565b90508060066000868152602001908152602001600020819055507fd99e4fad9ad6313b1feb588fa8e605e3a9873172f2024330c35dd2b4041a43863385604051610d97929190611d92565b60405180910390a15050505050565b60016020528060005260406000206000915054906101000a900473ffffffffffffffffffffffffffffffffffffffff1681565b610de33382611319565b610e22576040517f08c379a0000000000000000000000000000000000000000000000000000000008152600401610e1990611e1a565b60405180910390fd5b6000600560008381526020019081526020016000206040518060600160405290816000820160009054906101000a900473ffffffffffffffffffffffffffffffffffffffff1673ffffffffffffffffffffffffffffffffffffffff1673ffffffffffffffffffffffffffffffffffffffff1681526020016001820154815260200160028201548152505090503373ffffffffffffffffffffffffffffffffffffffff16816000015173ffffffffffffffffffffffffffffffffffffffff1614610f20576040517f08c379a0000000000000000000000000000000000000000000000000000000008152600401610f1790611eac565b60405180910390fd5b6004600660008481526020019081526020016000205481548110610f4757610f46611baa565b5b9060005260206000209060030201600080820160006101000a81549073ffffffffffffffffffffffffffffffffffffffff021916905560018201600090556002820160009055505060056000838152602001908152602001600020600080820160006101000a81549073ffffffffffffffffffffffffffffffffffffffff0219169055600182016000905560028201600090555050610fe5826115ee565b7fd99e4fad9ad6313b1feb588fa8e605e3a9873172f2024330c35dd2b4041a43863383604051611016929190611f18565b60405180910390a15050565b6040518060400160405280600281526020017f434b00000000000000000000000000000000000000000000000000000000000081525081565b600073ffffffffffffffffffffffffffffffffffffffff168273ffffffffffffffffffffffffffffffffffffffff16141561109557600080fd5b61109f3382611319565b6110a857600080fd5b6110b3338383611447565b5050565b6000600560008381526020019081526020016000206040518060600160405290816000820160009054906101000a900473ffffffffffffffffffffffffffffffffffffffff1673ffffffffffffffffffffffffffffffffffffffff1673ffffffffffffffffffffffffffffffffffffffff16815260200160018201548152602001600282015481525050905080602001513414611189576040517f08c379a000000000000000000000000000000000000000000000000000000000815260040161118090611fa0565b60405180910390fd5b60046006600084815260200190815260200160002054815481106111b0576111af611baa565b5b9060005260206000209060030201600080820160006101000a81549073ffffffffffffffffffffffffffffffffffffffff021916905560018201600090556002820160009055505060056000838152602001908152602001600020600080820160006101000a81549073ffffffffffffffffffffffffffffffffffffffff021916905560018201600090556002820160009055505061124f8233611385565b61125e816000015133846106f7565b806000015173ffffffffffffffffffffffffffffffffffffffff166108fc349081150290604051600060405180830381858888f193505050501580156112a8573d6000803e3d6000fd5b507fd99e4fad9ad6313b1feb588fa8e605e3a9873172f2024330c35dd2b4041a438633836040516112da92919061200c565b60405180910390a15050565b60036020528060005260406000206000915054906101000a900473ffffffffffffffffffffffffffffffffffffffff1681565b60008273ffffffffffffffffffffffffffffffffffffffff166001600084815260200190815260200160002060009054906101000a900473ffffffffffffffffffffffffffffffffffffffff1673ffffffffffffffffffffffffffffffffffffffff1614905092915050565b806003600084815260200190815260200160002060006101000a81548173ffffffffffffffffffffffffffffffffffffffff021916908373ffffffffffffffffffffffffffffffffffffffff1602179055505050565b60008273ffffffffffffffffffffffffffffffffffffffff166003600084815260200190815260200160002060009054906101000a900473ffffffffffffffffffffffffffffffffffffffff1673ffffffffffffffffffffffffffffffffffffffff1614905092915050565b600260008373ffffffffffffffffffffffffffffffffffffffff1673ffffffffffffffffffffffffffffffffffffffff168152602001908152602001600020600081548092919061149790611bd9565b9190505550816001600083815260200190815260200160002060006101000a81548173ffffffffffffffffffffffffffffffffffffffff021916908373ffffffffffffffffffffffffffffffffffffffff160217905550600073ffffffffffffffffffffffffffffffffffffffff168373ffffffffffffffffffffffffffffffffffffffff16146115ae57600260008473ffffffffffffffffffffffffffffffffffffffff1673ffffffffffffffffffffffffffffffffffffffff168152602001908152602001600020600081548092919061157290612048565b91905055506003600082815260200190815260200160002060006101000a81549073ffffffffffffffffffffffffffffffffffffffff02191690555b7fddf252ad1be2c89b69c2b068fc378daa952ba7f163c4a11628f55a4df523b3ef8383836040516115e193929190611ae1565b60405180910390a1505050565b6115f83382611319565b61160157600080fd5b6003600082815260200190815260200160002060006101000a81549073ffffffffffffffffffffffffffffffffffffffff021916905550565b600080fd5b60007fffffffff0000000000000000000000000000000000000000000000000000000082169050919050565b6116748161163f565b811461167f57600080fd5b50565b6000813590506116918161166b565b92915050565b6000602082840312156116ad576116ac61163a565b5b60006116bb84828501611682565b91505092915050565b60008115159050919050565b6116d9816116c4565b82525050565b60006020820190506116f460008301846116d0565b92915050565b600081519050919050565b600082825260208201905092915050565b60005b83811015611734578082015181840152602081019050611719565b83811115611743576000848401525b50505050565b6000601f19601f8301169050919050565b6000611765826116fa565b61176f8185611705565b935061177f818560208601611716565b61178881611749565b840191505092915050565b600060208201905081810360008301526117ad818461175a565b905092915050565b600073ffffffffffffffffffffffffffffffffffffffff82169050919050565b60006117e0826117b5565b9050919050565b6117f0816117d5565b81146117fb57600080fd5b50565b60008135905061180d816117e7565b92915050565b6000819050919050565b61182681611813565b811461183157600080fd5b50565b6000813590506118438161181d565b92915050565b600080604083850312156118605761185f61163a565b5b600061186e858286016117fe565b925050602061187f85828601611834565b9150509250929050565b61189281611813565b82525050565b60006020820190506118ad6000830184611889565b92915050565b6000806000606084860312156118cc576118cb61163a565b5b60006118da868287016117fe565b93505060206118eb868287016117fe565b92505060406118fc86828701611834565b9150509250925092565b60006020828403121561191c5761191b61163a565b5b600061192a84828501611834565b91505092915050565b61193c816117d5565b82525050565b60006060820190506119576000830186611933565b6119646020830185611889565b6119716040830184611889565b949350505050565b600081519050919050565b600082825260208201905092915050565b6000819050602082019050919050565b6119ae81611813565b82525050565b60006119c083836119a5565b60208301905092915050565b6000602082019050919050565b60006119e482611979565b6119ee8185611984565b93506119f983611995565b8060005b83811015611a2a578151611a1188826119b4565b9750611a1c836119cc565b9250506001810190506119fd565b5085935050505092915050565b60006020820190508181036000830152611a5181846119d9565b905092915050565b6000602082019050611a6e6000830184611933565b92915050565b600060208284031215611a8a57611a8961163a565b5b6000611a98848285016117fe565b91505092915050565b60008060408385031215611ab857611ab761163a565b5b6000611ac685828601611834565b9250506020611ad785828601611834565b9150509250929050565b6000606082019050611af66000830186611933565b611b036020830185611933565b611b106040830184611889565b949350505050565b7f4e487b7100000000000000000000000000000000000000000000000000000000600052601160045260246000fd5b6000611b5282611813565b9150611b5d83611813565b925082821015611b7057611b6f611b18565b5b828203905092915050565b7f4e487b7100000000000000000000000000000000000000000000000000000000600052604160045260246000fd5b7f4e487b7100000000000000000000000000000000000000000000000000000000600052603260045260246000fd5b6000611be482611813565b91507fffffffffffffffffffffffffffffffffffffffffffffffffffffffffffffffff821415611c1757611c16611b18565b5b600182019050919050565b7f4361742070726963652073686f756c642062652067726561746572207468616e60008201527f20302e3031000000000000000000000000000000000000000000000000000000602082015250565b6000611c7e602583611705565b9150611c8982611c22565b604082019050919050565b60006020820190508181036000830152611cad81611c71565b9050919050565b7f596f752063616e27742073656c6c207477696365207468652073616d65206f6660008201527f6665727320000000000000000000000000000000000000000000000000000000602082015250565b6000611d10602583611705565b9150611d1b82611cb4565b604082019050919050565b60006020820190508181036000830152611d3f81611d03565b9050919050565b7f437265617465206f666665720000000000000000000000000000000000000000600082015250565b6000611d7c600c83611705565b9150611d8782611d46565b602082019050919050565b60006060820190508181036000830152611dab81611d6f565b9050611dba6020830185611933565b611dc76040830184611889565b9392505050565b7f546865207573657220646f65736e2774206f776e2074686520746f6b656e0000600082015250565b6000611e04601e83611705565b9150611e0f82611dce565b602082019050919050565b60006020820190508181036000830152611e3381611df7565b9050919050565b7f596f752073686f756c64206f776e20746865206d617020746f2062652061626c60008201527f6520746f2072656d6f76652074686973206f6666657200000000000000000000602082015250565b6000611e96603683611705565b9150611ea182611e3a565b604082019050919050565b60006020820190508181036000830152611ec581611e89565b9050919050565b7f52656d6f7665206f666665720000000000000000000000000000000000000000600082015250565b6000611f02600c83611705565b9150611f0d82611ecc565b602082019050919050565b60006060820190508181036000830152611f3181611ef5565b9050611f406020830185611933565b611f4d6040830184611889565b9392505050565b7f546865207072696365206973206e6f7420636f72726563740000000000000000600082015250565b6000611f8a601883611705565b9150611f9582611f54565b602082019050919050565b60006020820190508181036000830152611fb981611f7d565b9050919050565b7f4275790000000000000000000000000000000000000000000000000000000000600082015250565b6000611ff6600383611705565b915061200182611fc0565b602082019050919050565b6000606082019050818103600083015261202581611fe9565b90506120346020830185611933565b6120416040830184611889565b9392505050565b600061205382611813565b9150600082141561206757612066611b18565b5b60018203905091905056fea2646970667358221220a3e83747e25066a1dae39c1dc6e071d6ed764bce74a547fe7a1d47a12c723ba664736f6c634300080b0033",
  "immutableReferences": {},
  "source": "import \"./MapOwnerShip.sol\";\r\n\r\n// SPDX-License-Identifier: UNLICENSED\r\npragma solidity ^0.8.11;\r\n\r\n\r\ncontract MapMarketPlace is MapOwnership {\r\n\r\n  struct Offer {\r\n    address payable seller;\r\n    uint256 price;\r\n    uint256 tokenId;\r\n  }\r\n\r\n  Offer[] offers;\r\n\r\n  mapping (uint256 => Offer) tokenIdToOffer;\r\n  mapping (uint256 => uint256) tokenIdToOfferId;\r\n\r\n\r\n  event MarketTransaction(string TxType, address owner, uint256 tokenId);\r\n\r\n  function getOffer(uint256 _tokenId)\r\n      public\r\n      view\r\n      returns\r\n  (\r\n      address seller,\r\n      uint256 price,\r\n      uint256 tokenId\r\n\r\n  ) {\r\n      Offer storage offer = tokenIdToOffer[_tokenId];\r\n      return (\r\n          offer.seller,\r\n          offer.price,\r\n          offer.tokenId\r\n      );\r\n  }\r\n\r\n\r\n  function getAllTokenOnSale() public view  returns(uint256[] memory listOfToken){\r\n    uint256 totalOffers = offers.length;\r\n    \r\n    if (totalOffers == 0) {\r\n        return new uint256[](0);\r\n    } else {\r\n  \r\n      uint256[] memory resultOfToken = new uint256[](totalOffers);\r\n\r\n      uint256 offerId;\r\n  \r\n      for (offerId = 0; offerId < totalOffers; offerId++) {\r\n        if(offers[offerId].price != 0){\r\n          resultOfToken[offerId] = offers[offerId].tokenId;\r\n        }\r\n      }\r\n      return resultOfToken;\r\n    }\r\n  }\r\n\r\n  function setOffer(uint256 _price, uint256 _tokenId)\r\n    public\r\n  {\r\n    /*\r\n    *   We give the contract the ability to transfer kitties\r\n    *   As the kitties will be in the market place we need to be able to transfert them\r\n    *   We are checking if the user is owning the kitty inside the approve function\r\n    */\r\n    require(_price > 0.009 ether, \"Cat price should be greater than 0.01\");\r\n    require(tokenIdToOffer[_tokenId].price == 0, \"You can't sell twice the same offers \");\r\n\r\n    approve(address(this), _tokenId);\r\n\r\n    Offer memory _offer = Offer({\r\n      seller: payable(msg.sender),\r\n      price: _price,\r\n      tokenId: _tokenId\r\n    });\r\n\r\n    tokenIdToOffer[_tokenId] = _offer;\r\n\r\n    offers.push(_offer);\r\n    uint256 offersLength = offers.length;\r\n\r\n    uint256 index = offersLength - 1;\r\n\r\n    tokenIdToOfferId[_tokenId] = index;\r\n\r\n    emit MarketTransaction(\"Create offer\", msg.sender, _tokenId);\r\n  }\r\n\r\n  function removeOffer(uint256 _tokenId)\r\n    public\r\n  {\r\n    require(_owns(msg.sender, _tokenId), \"The user doesn't own the token\");\r\n\r\n    Offer memory offer = tokenIdToOffer[_tokenId];\r\n\r\n    require(offer.seller == msg.sender, \"You should own the map to be able to remove this offer\");\r\n\r\n    /* we delete the offer info */\r\n    delete offers[tokenIdToOfferId[_tokenId]];\r\n\r\n    /* Remove the offer in the mapping*/\r\n    delete tokenIdToOffer[_tokenId];\r\n\r\n\r\n    _deleteApproval(_tokenId);\r\n\r\n    emit MarketTransaction(\"Remove offer\", msg.sender, _tokenId);\r\n  }\r\n\r\n  function buyMap(uint256 _tokenId)\r\n    public\r\n    payable\r\n  {\r\n    Offer memory offer = tokenIdToOffer[_tokenId];\r\n    require(msg.value == offer.price, \"The price is not correct\");\r\n\r\n    /* we delete the offer info */\r\n    delete offers[tokenIdToOfferId[_tokenId]];\r\n\r\n    /* Remove the offer in the mapping*/\r\n    delete tokenIdToOffer[_tokenId];\r\n\r\n    /* TMP REMOVE THIS*/\r\n    _approve(_tokenId, msg.sender);\r\n\r\n\r\n    transferFrom(offer.seller, msg.sender, _tokenId);\r\n\r\n    offer.seller.transfer(msg.value);\r\n    emit MarketTransaction(\"Buy\", msg.sender, _tokenId);\r\n  }\r\n}",
  "sourcePath": "E:\\Personal\\Blockchain\\NFT\\NFT_New\\NFT_updated\\contracts\\MapMarketPlace.sol",
  "compiler": {
    "name": "solc",
    "version": "0.8.11+commit.d7f03943.Emscripten.clang"
  },
  "schemaVersion": "3.4.4",
  "updatedAt": "2022-11-12T06:03:48.625Z",
  "devdoc": {
    "kind": "dev",
    "methods": {},
    "version": 1
  },
  "userdoc": {
    "kind": "user",
    "methods": {},
    "version": 1
  }
}