{
  "contractName": "MapOwnership",
  "abi": [
    {
      "anonymous": false,
      "inputs": [
        {
          "indexed": false,
          "internalType": "address",
          "name": "owner",
          "type": "address"
        },
        {
          "indexed": false,
          "internalType": "address",
          "name": "approved",
          "type": "address"
        },
        {
          "indexed": false,
          "internalType": "uint256",
          "name": "tokenId",
          "type": "uint256"
        }
      ],
      "name": "Approval",
      "type": "event"
    },
    {
      "anonymous": false,
      "inputs": [
        {
          "indexed": false,
          "internalType": "uint256",
          "name": "mapId",
          "type": "uint256"
        }
      ],
      "name": "MapCreated",
      "type": "event"
    },
    {
      "anonymous": false,
      "inputs": [
        {
          "indexed": false,
          "internalType": "address",
          "name": "from",
          "type": "address"
        },
        {
          "indexed": false,
          "internalType": "address",
          "name": "to",
          "type": "address"
        },
        {
          "indexed": false,
          "internalType": "uint256",
          "name": "tokenId",
          "type": "uint256"
        }
      ],
      "name": "Transfer",
      "type": "event"
    },
    {
      "inputs": [
        {
          "internalType": "uint256",
          "name": "",
          "type": "uint256"
        }
      ],
      "name": "mapIndexToApproved",
      "outputs": [
        {
          "internalType": "address",
          "name": "",
          "type": "address"
        }
      ],
      "stateMutability": "view",
      "type": "function"
    },
    {
      "inputs": [
        {
          "internalType": "uint256",
          "name": "",
          "type": "uint256"
        }
      ],
      "name": "mapIndexToOwner",
      "outputs": [
        {
          "internalType": "address",
          "name": "",
          "type": "address"
        }
      ],
      "stateMutability": "view",
      "type": "function"
    },
    {
      "inputs": [],
      "name": "name",
      "outputs": [
        {
          "internalType": "string",
          "name": "",
          "type": "string"
        }
      ],
      "stateMutability": "view",
      "type": "function"
    },
    {
      "inputs": [],
      "name": "symbol",
      "outputs": [
        {
          "internalType": "string",
          "name": "",
          "type": "string"
        }
      ],
      "stateMutability": "view",
      "type": "function"
    },
    {
      "inputs": [
        {
          "internalType": "bytes4",
          "name": "_interfaceID",
          "type": "bytes4"
        }
      ],
      "name": "supportsInterface",
      "outputs": [
        {
          "internalType": "bool",
          "name": "",
          "type": "bool"
        }
      ],
      "stateMutability": "pure",
      "type": "function"
    },
    {
      "inputs": [],
      "name": "totalSupply",
      "outputs": [
        {
          "internalType": "uint256",
          "name": "",
          "type": "uint256"
        }
      ],
      "stateMutability": "view",
      "type": "function"
    },
    {
      "inputs": [
        {
          "internalType": "address",
          "name": "_owner",
          "type": "address"
        }
      ],
      "name": "balanceOf",
      "outputs": [
        {
          "internalType": "uint256",
          "name": "count",
          "type": "uint256"
        }
      ],
      "stateMutability": "view",
      "type": "function"
    },
    {
      "inputs": [
        {
          "internalType": "uint256",
          "name": "_tokenId",
          "type": "uint256"
        }
      ],
      "name": "ownerOf",
      "outputs": [
        {
          "internalType": "address",
          "name": "owner",
          "type": "address"
        }
      ],
      "stateMutability": "view",
      "type": "function"
    },
    {
      "inputs": [
        {
          "internalType": "address",
          "name": "_to",
          "type": "address"
        },
        {
          "internalType": "uint256",
          "name": "_tokenId",
          "type": "uint256"
        }
      ],
      "name": "approve",
      "outputs": [],
      "stateMutability": "nonpayable",
      "type": "function"
    },
    {
      "inputs": [
        {
          "internalType": "address",
          "name": "_to",
          "type": "address"
        },
        {
          "internalType": "uint256",
          "name": "_tokenId",
          "type": "uint256"
        }
      ],
      "name": "transfer",
      "outputs": [],
      "stateMutability": "nonpayable",
      "type": "function"
    },
    {
      "inputs": [
        {
          "internalType": "address",
          "name": "_from",
          "type": "address"
        },
        {
          "internalType": "address",
          "name": "_to",
          "type": "address"
        },
        {
          "internalType": "uint256",
          "name": "_tokenId",
          "type": "uint256"
        }
      ],
      "name": "transferFrom",
      "outputs": [],
      "stateMutability": "nonpayable",
      "type": "function"
    },
    {
      "inputs": [
        {
          "internalType": "address",
          "name": "_owner",
          "type": "address"
        }
      ],
      "name": "tokensOfOwner",
      "outputs": [
        {
          "internalType": "uint256[]",
          "name": "ownerTokens",
          "type": "uint256[]"
        }
      ],
      "stateMutability": "view",
      "type": "function"
    }
  ],
  "bytecode": "0x608060405234801561001057600080fd5b50611193806100206000396000f3fe608060405234801561001057600080fd5b50600436106100b45760003560e01c806370a082311161007157806370a082311461018d5780638462151c146101bd578063945c8a1d146101ed57806395d89b411461021d578063a9059cbb1461023b578063e8c6e45514610257576100b4565b806301ffc9a7146100b957806306fdde03146100e9578063095ea7b31461010757806318160ddd1461012357806323b872dd146101415780636352211e1461015d575b600080fd5b6100d360048036038101906100ce9190610c1f565b610287565b6040516100e09190610c67565b60405180910390f35b6100f161048b565b6040516100fe9190610d1b565b60405180910390f35b610121600480360381019061011c9190610dd1565b6104c4565b005b61012b610520565b6040516101389190610e20565b60405180910390f35b61015b60048036038101906101569190610e3b565b610539565b005b61017760048036038101906101729190610e8e565b6105a9565b6040516101849190610eca565b60405180910390f35b6101a760048036038101906101a29190610ee5565b610620565b6040516101b49190610e20565b60405180910390f35b6101d760048036038101906101d29190610ee5565b610669565b6040516101e49190610fd0565b60405180910390f35b61020760048036038101906102029190610e8e565b6107f2565b6040516102149190610eca565b60405180910390f35b610225610825565b6040516102329190610d1b565b60405180910390f35b61025560048036038101906102509190610dd1565b61085e565b005b610271600480360381019061026c9190610e8e565b6108ba565b60405161027e9190610eca565b60405180910390f35b60007f01ffc9a7a5cef8baa21ed3c5c0d7e23accb804b619e9333b597f47a0d84076e27bffffffffffffffffffffffffffffffffffffffffffffffffffffffff1916827bffffffffffffffffffffffffffffffffffffffffffffffffffffffff1916148061048457507f0560ff44c470b66135b184f41c47840de0a42f8d70ee772ca647210e9eb3c8fd7f8462151cfcc0f257319f78db464014651918f3905b3d4bdab48d3f4618c542c17f23b872dd7302113369cda2901243429419bec145408fa8b352b3dd92b66c680b7fa9059cbb2ab09eb219583f4a59a5d0623ade346d962bcd4e46b11da047c9049b7f095ea7b334ae44009aa867bfb386f5c3b4b443ac6f0ee573fa91c4608fbadfba7f6352211e6566aa027e75ac9dbf2423197fbd9b82b9d981a3ab367d355866aa1c7f70a08231b98ef4ca268c9cc3f6b4590e4bfec28280db06bb5d45e689f2a360be7f18160ddd7f15c72528c2f94fd8dfe3c8d5aa26e2c50c7d81f4bc7bee8d4b79327f95d89b41e2f5f391a79ec54e9d87c79d6e777c63e32c28da95b4e9e4a79250ec7f06fdde0383f15d582d1a74511486c9ddf862a882fb7904b3d9fe9b8b8e58a7961818181818181818187bffffffffffffffffffffffffffffffffffffffffffffffffffffffff1916827bffffffffffffffffffffffffffffffffffffffffffffffffffffffff1916145b9050919050565b6040518060400160405280600b81526020017f4b65736176616e4d61707300000000000000000000000000000000000000000081525081565b6104ce33826108ed565b6104d757600080fd5b6104e18183610959565b7f8c5be1e5ebec7d5bd14f71427d1e84f3dd0314c0f7b2291e5b200ac8c7c3b92533838360405161051493929190610ff2565b60405180910390a15050565b600060016000805490506105349190611058565b905090565b600073ffffffffffffffffffffffffffffffffffffffff168273ffffffffffffffffffffffffffffffffffffffff16141561057357600080fd5b61057d33826109af565b61058657600080fd5b61059083826108ed565b61059957600080fd5b6105a4838383610a1b565b505050565b60006001600083815260200190815260200160002060009054906101000a900473ffffffffffffffffffffffffffffffffffffffff169050600073ffffffffffffffffffffffffffffffffffffffff168173ffffffffffffffffffffffffffffffffffffffff16141561061b57600080fd5b919050565b6000600260008373ffffffffffffffffffffffffffffffffffffffff1673ffffffffffffffffffffffffffffffffffffffff168152602001908152602001600020549050919050565b6060600061067683610620565b905060008114156106d357600067ffffffffffffffff81111561069c5761069b61108c565b5b6040519080825280602002602001820160405280156106ca5781602001602082028036833780820191505090505b509150506107ed565b60008167ffffffffffffffff8111156106ef576106ee61108c565b5b60405190808252806020026020018201604052801561071d5781602001602082028036833780820191505090505b509050600061072a610520565b9050600080600190505b8281116107e4578673ffffffffffffffffffffffffffffffffffffffff166001600083815260200190815260200160002060009054906101000a900473ffffffffffffffffffffffffffffffffffffffff1673ffffffffffffffffffffffffffffffffffffffff1614156107d157808483815181106107b6576107b56110bb565b5b60200260200101818152505081806107cd906110ea565b9250505b80806107dc906110ea565b915050610734565b83955050505050505b919050565b60016020528060005260406000206000915054906101000a900473ffffffffffffffffffffffffffffffffffffffff1681565b6040518060400160405280600281526020017f434b00000000000000000000000000000000000000000000000000000000000081525081565b600073ffffffffffffffffffffffffffffffffffffffff168273ffffffffffffffffffffffffffffffffffffffff16141561089857600080fd5b6108a233826108ed565b6108ab57600080fd5b6108b6338383610a1b565b5050565b60036020528060005260406000206000915054906101000a900473ffffffffffffffffffffffffffffffffffffffff1681565b60008273ffffffffffffffffffffffffffffffffffffffff166001600084815260200190815260200160002060009054906101000a900473ffffffffffffffffffffffffffffffffffffffff1673ffffffffffffffffffffffffffffffffffffffff1614905092915050565b806003600084815260200190815260200160002060006101000a81548173ffffffffffffffffffffffffffffffffffffffff021916908373ffffffffffffffffffffffffffffffffffffffff1602179055505050565b60008273ffffffffffffffffffffffffffffffffffffffff166003600084815260200190815260200160002060009054906101000a900473ffffffffffffffffffffffffffffffffffffffff1673ffffffffffffffffffffffffffffffffffffffff1614905092915050565b600260008373ffffffffffffffffffffffffffffffffffffffff1673ffffffffffffffffffffffffffffffffffffffff1681526020019081526020016000206000815480929190610a6b906110ea565b9190505550816001600083815260200190815260200160002060006101000a81548173ffffffffffffffffffffffffffffffffffffffff021916908373ffffffffffffffffffffffffffffffffffffffff160217905550600073ffffffffffffffffffffffffffffffffffffffff168373ffffffffffffffffffffffffffffffffffffffff1614610b8257600260008473ffffffffffffffffffffffffffffffffffffffff1673ffffffffffffffffffffffffffffffffffffffff1681526020019081526020016000206000815480929190610b4690611133565b91905055506003600082815260200190815260200160002060006101000a81549073ffffffffffffffffffffffffffffffffffffffff02191690555b7fddf252ad1be2c89b69c2b068fc378daa952ba7f163c4a11628f55a4df523b3ef838383604051610bb593929190610ff2565b60405180910390a1505050565b600080fd5b60007fffffffff0000000000000000000000000000000000000000000000000000000082169050919050565b610bfc81610bc7565b8114610c0757600080fd5b50565b600081359050610c1981610bf3565b92915050565b600060208284031215610c3557610c34610bc2565b5b6000610c4384828501610c0a565b91505092915050565b60008115159050919050565b610c6181610c4c565b82525050565b6000602082019050610c7c6000830184610c58565b92915050565b600081519050919050565b600082825260208201905092915050565b60005b83811015610cbc578082015181840152602081019050610ca1565b83811115610ccb576000848401525b50505050565b6000601f19601f8301169050919050565b6000610ced82610c82565b610cf78185610c8d565b9350610d07818560208601610c9e565b610d1081610cd1565b840191505092915050565b60006020820190508181036000830152610d358184610ce2565b905092915050565b600073ffffffffffffffffffffffffffffffffffffffff82169050919050565b6000610d6882610d3d565b9050919050565b610d7881610d5d565b8114610d8357600080fd5b50565b600081359050610d9581610d6f565b92915050565b6000819050919050565b610dae81610d9b565b8114610db957600080fd5b50565b600081359050610dcb81610da5565b92915050565b60008060408385031215610de857610de7610bc2565b5b6000610df685828601610d86565b9250506020610e0785828601610dbc565b9150509250929050565b610e1a81610d9b565b82525050565b6000602082019050610e356000830184610e11565b92915050565b600080600060608486031215610e5457610e53610bc2565b5b6000610e6286828701610d86565b9350506020610e7386828701610d86565b9250506040610e8486828701610dbc565b9150509250925092565b600060208284031215610ea457610ea3610bc2565b5b6000610eb284828501610dbc565b91505092915050565b610ec481610d5d565b82525050565b6000602082019050610edf6000830184610ebb565b92915050565b600060208284031215610efb57610efa610bc2565b5b6000610f0984828501610d86565b91505092915050565b600081519050919050565b600082825260208201905092915050565b6000819050602082019050919050565b610f4781610d9b565b82525050565b6000610f598383610f3e565b60208301905092915050565b6000602082019050919050565b6000610f7d82610f12565b610f878185610f1d565b9350610f9283610f2e565b8060005b83811015610fc3578151610faa8882610f4d565b9750610fb583610f65565b925050600181019050610f96565b5085935050505092915050565b60006020820190508181036000830152610fea8184610f72565b905092915050565b60006060820190506110076000830186610ebb565b6110146020830185610ebb565b6110216040830184610e11565b949350505050565b7f4e487b7100000000000000000000000000000000000000000000000000000000600052601160045260246000fd5b600061106382610d9b565b915061106e83610d9b565b92508282101561108157611080611029565b5b828203905092915050565b7f4e487b7100000000000000000000000000000000000000000000000000000000600052604160045260246000fd5b7f4e487b7100000000000000000000000000000000000000000000000000000000600052603260045260246000fd5b60006110f582610d9b565b91507fffffffffffffffffffffffffffffffffffffffffffffffffffffffffffffffff82141561112857611127611029565b5b600182019050919050565b600061113e82610d9b565b9150600082141561115257611151611029565b5b60018203905091905056fea2646970667358221220440283998e36445492c81d9a5d1b2442165b065b51efe0cf1a2d494583c174b364736f6c634300080b0033",
  "immutableReferences": {},
  "source": "// SPDX-License-Identifier: UNLICENSED\r\npragma solidity ^0.8.11;\r\n\r\nimport \"./MapFactory.sol\";\r\n\r\ncontract MapOwnership is MapFactorys{\r\n\r\n  string public constant name = \"KesavanMaps\";\r\n  string public constant symbol = \"CK\";\r\n\r\n  //event Transfer(address from, address to, uint256 tokenId);\r\n  event Approval(address owner, address approved, uint256 tokenId);\r\n\r\n  /*\r\n  *    We use the modulo of each function to set the interfaceId\r\n  */\r\n  bytes4 constant InterfaceSignature_ERC165 =\r\n      bytes4(keccak256('supportsInterface(bytes4)'));\r\n\r\n  bytes4 constant InterfaceSignature_ERC721 =\r\n      bytes4(keccak256('name()')) ^\r\n      bytes4(keccak256('symbol()')) ^\r\n      bytes4(keccak256('totalSupply()')) ^\r\n      bytes4(keccak256('balanceOf(address)')) ^\r\n      bytes4(keccak256('ownerOf(uint256)')) ^\r\n      bytes4(keccak256('approve(address,uint256)')) ^\r\n      bytes4(keccak256('transfer(address,uint256)')) ^\r\n      bytes4(keccak256('transferFrom(address,address,uint256)')) ^\r\n      bytes4(keccak256('tokensOfOwner(address)')) ^\r\n      bytes4(keccak256('tokenMetadata(uint256,string)'));\r\n\r\n  function supportsInterface(bytes4 _interfaceID) external pure returns (bool)\r\n  {\r\n      return ((_interfaceID == InterfaceSignature_ERC165) || (_interfaceID == InterfaceSignature_ERC721));\r\n  }\r\n\r\n  function _owns(address _claimant, uint256 _tokenId) internal view returns (bool) {\r\n      return mapIndexToOwner[_tokenId] == _claimant;\r\n  }\r\n\r\n  function _approvedFor(address _claimant, uint256 _tokenId) internal view returns (bool) {\r\n      return mapIndexToApproved[_tokenId] == _claimant;\r\n  }\r\n\r\n  function _approve(uint256 _tokenId, address _approved) internal {\r\n      mapIndexToApproved[_tokenId] = _approved;\r\n  }\r\n\r\n  function _deleteApproval(uint256 _tokenId) internal {\r\n      require(_owns(msg.sender, _tokenId));\r\n      delete mapIndexToApproved[_tokenId];\r\n  }\r\n\r\n\r\n  /*\r\n  *   Function required by the erc 721 interface\r\n  */\r\n\r\n  function totalSupply() public view returns (uint) {\r\n      return maps.length - 1;\r\n  }\r\n\r\n  function balanceOf(address _owner) public view returns (uint256 count) {\r\n      return ownershipTokenCount[_owner];\r\n  }\r\n\r\n  function ownerOf(uint256 _tokenId)\r\n      external\r\n      view\r\n      returns (address owner)\r\n  {\r\n      owner = mapIndexToOwner[_tokenId];\r\n\r\n      require(owner != address(0));\r\n  }\r\n\r\n  function approve(\r\n      address _to,\r\n      uint256 _tokenId\r\n  )\r\n      public\r\n  {\r\n      require(_owns(msg.sender, _tokenId));\r\n\r\n      _approve(_tokenId, _to);\r\n      emit Approval(msg.sender, _to, _tokenId);\r\n  }\r\n\r\n  function transfer(\r\n      address _to,\r\n      uint256 _tokenId\r\n  )\r\n      public\r\n  {\r\n      require(_to != address(0));\r\n      require(_owns(msg.sender, _tokenId));\r\n\r\n      _transfer(msg.sender, _to, _tokenId);\r\n  }\r\n\r\n  function transferFrom(\r\n      address _from,\r\n      address _to,\r\n      uint256 _tokenId\r\n  )\r\n      public\r\n  {\r\n      require(_to != address(0));\r\n      require(_approvedFor(msg.sender, _tokenId));\r\n      require(_owns(_from, _tokenId));\r\n\r\n      _transfer(_from, _to, _tokenId);\r\n  }\r\n\r\n  function tokensOfOwner(address _owner) public view returns(uint256[] memory ownerTokens) {\r\n    uint256 tokenCount = balanceOf(_owner);\r\n\r\n    if (tokenCount == 0) {\r\n        return new uint256[](0);\r\n    } else {\r\n        uint256[] memory result = new uint256[](tokenCount);\r\n        uint256 totalMaps = totalSupply();\r\n        uint256 resultIndex = 0;\r\n\r\n        uint256 mapId;\r\n\r\n        for (mapId = 1; mapId <= totalMaps; mapId++) {\r\n            if (mapIndexToOwner[mapId] == _owner) {\r\n                result[resultIndex] = mapId;\r\n                resultIndex++;\r\n            }\r\n        }\r\n\r\n        return result;\r\n    }\r\n  }\r\n}",
  "sourcePath": "E:\\Personal\\Blockchain\\NFT\\NFT_New\\NFT_updated\\contracts\\MapOwnerShip.sol",
  "compiler": {
    "name": "solc",
    "version": "0.8.11+commit.d7f03943.Emscripten.clang"
  },
  "schemaVersion": "3.4.4",
  "updatedAt": "2022-11-12T06:03:48.644Z",
  "devdoc": {
    "kind": "dev",
    "methods": {},
    "version": 1
  },
  "userdoc": {
    "kind": "user",
    "methods": {},
    "version": 1
  }
}